S01100006D7970726F6A6563742E7372656336
S1130000F8FF002011040000331C0000331C000022
S1130010331C0000331C0000331C0000331C0000A0
S1130020331C0000331C0000331C0000331C000090
S1130030331C0000331C0000331C0000331C000080
S1130040331C0000331C0000331C0000331C000070
S1130050331C0000331C0000331C0000331C000060
S1130060331C0000331C0000331C0000331C000050
S1130070331C0000331C0000331C0000331C000040
S1130080331C0000331C0000331C0000331C000030
S1130090331C0000331C0000331C0000331C000020
S11300A0331C0000331C0000331C0000331C000010
S11300B0331C0000331C0000331C0000331C000000
S11300C0331C0000331C0000331C0000331C0000F0
S11300D0331C0000331C0000331C0000331C0000E0
S11300E0331C0000331C0000331C0000331C0000D0
S11300F0331C0000D3510000331C00007F52000069
S1130100331C0000331C0000331C0000331C0000AF
S1130110331C0000331C0000331C0000331C00009F
S1130120331C0000331C0000331C0000331C00008F
S1130130331C0000331C0000331C0000331C00007F
S1130140331C0000331C0000331C0000331C00006F
S113015021540000331C0000331C0000331C000039
S1130160331C0000331C0000331C0000331C00004F
S1130170331C0000331C0000331C0000331C00003F
S1130180331C0000331C0000331C0000331C00002F
S1130190331C0000331C0000331C0000331C00001F
S11301A0331C0000331C0000331C00009550000079
S11301B0331C0000331C0000331C0000331C0000FF
S11301C0331C0000331C0000331C0000331C0000EF
S11301D0331C0000331C0000331C0000331C0000DF
S11301E0331C0000331C0000331C0000331C0000CF
S1130400FFFFFFFFFFFFFFFFFFFFFFFFFEFFFFFFF9
S11304104FF000004FF000014FF000024FF00003D6
S11304204FF000044FF000054FF000064FF00007B6
S11304304FF000084FF000094FF0000A4FF0000B96
S11304404FF0000C62B607F007FAFEE72DE9F74F0C
S113045086B0984600245FF0000A5FF000095FF060
S1130460000B002005900020049000200390002041
S113047002900020049000200190002003900020AE
S11304800090002002900025002600270020019003
S113049000200090069801F053FA01F073FA152831
S11304A006DA079801F04CFA01F06CFA152808DB1B
S11304B0DFF83C0B0121017001220A21012001F027
S11304C09EFA069801F03CFA01F05CFA1F2806DA5D
S11304D0079801F035FA01F055FA1F2808DBDFF818
S11304E0140B0121017001221021012001F087FA6F
S11304F04046DFF8041B096801F0ECFA01F020FA29
S113050001F040FA042804DBDFF8EC0AD0F800809C
S113051003E0DFF8E40AC0F800804046DFF8DC1AA4
S113052001F05CFB0DD8DFF8D80A0078002808D168
S1130530DFF8D00A01210170DFF8CC0ADFF8CC1A09
S113054001604046DFF8C81A01F048FB0DD8DFF817
S1130550B00A0078002808D1DFF8AC0ADFF8B41A32
S11305600160DFF89C0A012101704046DFF89C1A03
S113057001F034FB04D8DFF8A00A5FF07E5101607B
S1130580DFF8700A0078002803D0DFF8780A002129
S11305900170DFF8880A0068069901F09BFA02905E
S11305A0DFF87C0A0068079901F094FA0500DFF887
S11305B0740A0068089901F08DFA0600DFF8480A09
S11305C00068414601F086FA0700DFF8380A00782F
S11305D001F020FB390001F02DFB0700DFF8480A89
S11305E00088401C01F00CFB414601F08FFB26D231
S11305F0029801F09DFBDFF8344AD4E9002301F0AE
S1130600BFFBDFF8282AC2E90001280001F090FBB3
S1130610DFF81C4AD4E9002301F0B2FBDFF8102A0A
S1130620C2E90001300001F083FBDFF8084AD4E995
S1130630002301F0A5FBDFF8FC29C2E90001DFF883
S1130640F809007800281FD0DFF8EC0900210170B8
S1130650380001F06DFBDFF8E449D4E9002301F030
S11306608FFBDFF8D829C2E90001DFF8AC09006884
S113067001F05EFBDFF8C449D4E9002301F0F4FB88
S1130680DFF8B829C2E900010298DFF8B419096853
S113069001F020FA04902800DFF8A819096801F095
S11306A019FA01903000DFF8A019096801F012FA74
S11306B003903800DFF89419096801F00BFA0090F0
S11306C0DFF87C0902990160DFF878090560DFF83A
S11306D078090660DFF874090760DFF874090068B8
S11306E090F00040390001F0A5FA01F021FB8246A8
S11306F08B46DFF86009006801F01AFBDFF83C491B
S1130700D4E9002301F0B0FB02000B005046594627
S113071001F07CFC82468B46DFF83C0901680098B6
S113072001F088FA01F004FB02000B005046594620
S113073001F06CFC01F02AFD0400DFF820090068D8
S113074090F00040290001F075FA01F0F1FA8246B8
S11307508B46DFF80C09006801F0EAFADFF8D0589C
S1130760D5E9002301F080FB02000B0050465946F6
S113077001F04CFC82468B46DFF8E80801680198DA
S113078001F058FA01F0D4FA02000B005046594621
S113079001F03CFC01F0FAFC8246DFF8CC08016869
S11307A091F00041029801F045FA01F0C1FACDE957
S11307B00001DFF8B808006801F0BAFADFF86C58F5
S11307C0D5E9002301F050FB02000B00DDE9000134
S11307D001F01CFCCDE90001DFF8940801680498DD
S11307E001F028FA01F0A4FA02000B00DDE900018F
S11307F001F00CFC01F0CAFC8146DFF878080068BF
S113080090F00040310001F015FA01F091FA060071
S11308100F00DFF86408006801F08AFADFF8145862
S1130820D5E9002301F020FB02000B003000390061
S113083001F0ECFB06000F00DFF8400801680398A4
S113084001F0F8F901F074FA02000B0030003900ED
S113085001F0DCFB01F09AFC834620005FF081414B
S113086001F0DCFC050048465FF0804101F0D6FC55
S11308700100280001F02EF9050058465FF081417F
S113088001F0CCFC0100280001F024F905902000BF
S11308905FF0814101F0C2FC050050465FF08041E9
S11308A001F0BCFC0100280001F014F905005846D1
S11308B05FF0814101F0B2FC290001F02DFD0490AC
S11308C020005FF0814101F0A9FC050048465FF07B
S11308D0804101F0A3FC290001F01EFD05005846EB
S11308E05FF0814101F09AFC0100280001F0F2F868
S11308F0039020005FF0814101F090FC0400504619
S11309005FF0804101F08AFC210001F005FD040044
S113091058465FF0814101F081FC210001F0FCFCAC
S11309200290DFF8D0060078DFF8C416097808438F
S1130930C0B200281DD1DFF8F006008801F06AF982
S11309400100404601F0C6F8DFF8141E01F0DEF99C
S11309500FD2DFF8100E006801F0EAF9DFF8082E74
S1130960DFF8083E01F00CFA01F010FCDFF8F41D8A
S11309700860DFF87C060078002817D0DFF88806C6
S11309800068DFF8EC1D01F029F90FD8DFF87806CC
S1130990006801F0CDF9DFF8D02DDFF8D83D01F083
S11309A0EFF901F0F3FBDFF860160860DFF84006AA
S11309B00078002812D0DFF87006008801F02AF9C8
S11309C00100404601F086F800F0BAFF00F0DAFFBB
S11309D00D2803DADFF8A00D01210170DFF81406F9
S11309E00078002816D0DFF87C0D0068DFF88C1D35
S11309F001F0F4F80ED8DFF86C0D006801F098F9F6
S1130A000022DFF87C3D01F0BBF901F0BFFBDFF809
S1130A10541D0860DFF86C0D006801F0C9FC002269
S1130A20DFF8643D01F020FA0022DFF8603D01F0B8
S1130A30CDFC0022DFF8583D01F0ECFD03D8DFF8CF
S1130A40B00501210170DFF81C0D006800F078FF8B
S1130A5010F57A70DFF83C1D088000200021002486
S1130A6000250022002300260027DFF82CCDDCF827
S1130A7000C01CF1010CDFF820EDCEF800C0DFF857
S1130A801CCD9CF800C0BCF1000F13D0DFF8101D82
S1130A90149801F0D9FEDFF8081D159801F0D4FE72
S1130AA0DFF8FC1C169801F0CFFEDFF8F41C40467A
S1130AB001F0CAFEDFF8CC0C006801F079FC0022DA
S1130AC0DFF8C43C01F0D0F901F086FF1E2190FB51
S1130AD0F1F201FB1200002840F05A8502F0F0FF09
S1130AE0DFF8300D0078002840F08B80DFF8100527
S1130AF00078012840F08580DFF81C0D007800287C
S1130B000BD1DFF8180D4FF47F710160DFF8100D81
S1130B1000681630DFF8081D0860DFF8040D00686F
S1130B2040F63401884208DBDFF8EC0C007800283A
S1130B3003D1DFF8E40C01210170DFF8DC0C00784C
S1130B4001280BD1DFF8D80C00681638DFF8D01C68
S1130B500860DFF8C80C4FF496610160DFF8C00C40
S1130B600068B0F52F7F08DCDFF8AC0C00780128B2
S1130B7003D1DFF8A40C02210170DFF89C0C00788B
S1130B8002280BD1DFF8940C40F2AA510160DFF87F
S1130B90900C00681630DFF8881C0860DFF8800CC1
S1130BA0006840F63401884208DBDFF86C0C0078FA
S1130BB0022803D1DFF8600C03210170DFF8580C20
S1130BC0007803280BD1DFF8540C4FF4C86101609E
S1130BD0DFF84C0C00681638DFF8441C0860DFF8B6
S1130BE0400C0068B0F52F7F00F3DF80DFF8280C9D
S1130BF00078032840F0D980DFF81C0C0021017034
S1130C00D3E0DFF8200C0068002800F0B780DFF89C
S1130C10180C0068002800F0B1800022DFF80C3CBA
S1130C2014001D00DFF8FC0B006800F0E9FF01F080
S1130C307FF822002B0003F081F801F0A7FADFF817
S1130C40F01B08600022DFF8EC3B14001D00DFF805
S1130C50D80B006800F0D4FF01F06AF822002B00E2
S1130C6003F06CF801F092FADFF8CC1B0860DFF8AF
S1130C70CC0BDFF8BC1B09680160DFF8C40BDFF89C
S1130C80B81B09680160DFF8980B006801F086FB67
S1130C9004000D00DFF8980B006801F049F8DFF854
S1130CA0C82ADFF8C83A01F0DFF80022DFF8943BE5
S1130CB001F0DAF802000B002000290001F0A6F987
S1130CC004000D00DFF8680B0068DFF8701B09688A
S1130CD000F000FF01F02CF8DFF86C2BDFF86C3B20
S1130CE001F0C2F80022DFF85C3B01F0BDF802001D
S1130CF00B002000290001F089F901F06DFEDFF8F6
S1130D00201B0860DFF8140B006801F047FB0400A7
S1130D100D00DFF8240B006801F00AF8DFF8482A18
S1130D20DFF8483A01F0A0F80022DFF8183B01F0A0
S1130D309BF822002B0001F023F804000D00DFF8DB
S1130D40F80A0068DFF8F81A096800F0C3FE00F03A
S1130D50EFFFDFF8F42ADFF8F43A01F085F8002217
S1130D60DFF8E03A01F080F822002B0001F008F8E7
S1130D7001F032FEDFF8A41A086007E0DFF8B00AD9
S1130D8000210160DFF8B00A00210160DFF8C00A29
S1130D900078002809D0DFF8880A40F24651016043
S1130DA0DFF8780A40F252310160DFF8700A006817
S1130DB040F25231884204DADFF8600A40F25231DC
S1130DC00160DFF8580A0068B0F5E16F04DDDFF870
S1130DD04C0A4FF4E1610160DFF8440A0068B0F5A1
S1130DE0167F04DADFF8380A4FF416710160DFF871
S1130DF0300A006840F6FD01884204DBDFF8200A6F
S1130E0040F6FC010160DFF8140A0168002003F0D9
S1130E1088FADFF80C0A0168052003F082FADFF88B
S1130E20080A00210160DFF8FC0900210160DFF8F5
S1130E30240A0078DFF8DC19097808406C4909783D
S1130E4091F00101C0B2084200F02681DFF8080ADF
S1130E5000210160DFF8040A002101601298DFF824
S1130E60F819096800F036FEDFF8F41908601398E1
S1130E70DFF8E819096800F02DFEDFF8E8190860CA
S1130E80DFF8E009006890F0004000F051FF020034
S1130E900B0014001D00DFF8C809006800F048FFCB
S1130EA022002B0002F04AFF01F070F9DFF8B819B4
S1130EB0086000260027DFF8A8090168DFF8A00908
S1130EC0006800F0B7FE0400DFF898090168DFF855
S1130ED09409006800F0AEFE210001F01DFA00F054
S1130EE027FF03F09DFA01F051F90700380000F0E4
S1130EF01FFF0022DFF8743901F068FA03F008FBE1
S1130F00DFF86428DFF8683900F0AEFF04000D0054
S1130F1000205FF0804103F0FBFA02000B00200088
S1130F20290001F053FA01F031F906003800DFF826
S1130F30441900F0EBFE03D2DFF81409012101701B
S1130F403800DFF8341900F049FE00F29980DFF828
S1130F502C09006800F0ECFE804689465FF0804072
S1130F60310000F067FE00F0E3FE04000D00DFF83E
S1130F70F808006800F0DCFE03F0CDFA22002B0034
S1130F8000F072FF02000B004046494601F03EF8B3
S1130F9001F0FCF8DFF8E4180860DFF8E408006802
S1130FA000F0C6FE804689465FF08040310000F0C4
S1130FB041FE00F0BDFE04000D00DFF8AC0800683F
S1130FC000F0B6FE03F0AAFA22002B0000F04CFF5A
S1130FD002000B004046494601F018F801F0D6F82B
S1130FE0DFF89C180860DFF89C080121017053E0C9
S1130FF01227002015270020A022002001004842CB
S11310000B2700200A270020A804FF1F0000A0428D
S113101001008C420000DC425C2300202C230020D1
S11310203023002034230020062700200005FF1F62
S11310300805FF1F1005FF1F0C2700201805FF1FC0
S1131040382300203C230020402300204423002098
S11310502C04FF1F4C04FF1F3C04FF1F3004FF1F20
S11310605004FF1F4004FF1F3404FF1F5404FF1FDC
S11310704404FF1F3804FF1F5804FF1F4804FF1FC8
S1131080DFF8F807DFF8F41709680160DFF8F00704
S1131090DFF8EC1709680160DFF8EC07D0E90023FA
S11310A0DFF8C406DFF8C41600F0DEFE04000D000D
S11310B0DFF8D807006800F03BFEDFF8AC26DFF865
S11310C0D03700F0D1FE22002B0000F059FE01F0D1
S11310D05DF80600DFF8BC07D0E90023DFF88806D6
S11310E0DFF8881600F0C0FE04000D00DFF8A80742
S11310F0006800F01DFEDFF87026DFF8943700F07A
S1131100B3FE22002B0000F03BFE01F03FF8070085
S11311103000DFF86817096800F0DCFC00F008FE16
S1131120DFF87827C2E900013800DFF854170968AE
S113113000F0D0FC00F0FCFDDFF86427C2E90001F8
S1131140DFF86007006800F0F3FD02000B00DFF831
S11311504C47D4E9000100F059FF01F017F8DFF81B
S113116048170860DFF84407006800F0E1FD02005A
S11311700B00DFF82C47D4E9000100F047FF01F031
S113118005F8DFF82C170860DFF81C070168DFF8A2
S11311902407006801F0C0F800F0CAFD00225FF0E7
S11311A0804301F013F900F0F1FFDFF8FC1608604A
S11311B0DFF8FC060168DFF80007006801F0ACF80E
S11311C000F0B6FD00225FF0804301F0FFF800F06C
S11311D0DDFFDFF8DC160860DFF8CC060068DFF816
S11311E0D416096800F076FC0400DFF8C406006831
S11311F0DFF8C416096800F06DFC0500DFF88C0602
S11312000660DFF894060760DFF89026D2E9000153
S113121000F0BCFFDFF88C160860DFF88426D2E902
S1131220000100F0B3FFDFF884160860DFF88406DD
S1131230DFF8741609680160DFF87C06DFF87016C1
S113124009680160DFF85C06006800F071FDDFF8F2
S11312506C66D6E9002300F093FDDFF86026C2E94E
S11312600001DFF84806006800F062FDDFF8506610
S1131270D6E9002300F084FDDFF84426C2E900012A
S113128000270026DFF8D8050068DFF8381609685B
S113129000F020FC0700DFF8CC050068DFF8281612
S11312A0096800F017FC0600380000F041FD5FF00B
S11312B03332DFF8183600F0D7FD80468946DFF870
S11312C01006006800F034FD5FF06632DFF8043683
S11312D000F0CAFD42464B4600F052FD00F056FFB6
S11312E00190300000F024FD5FF03332DFF8DC358C
S11312F000F0BAFD06000F00DFF8DC05006800F01E
S113130017FD5FF06632DFF8CC3500F0ADFD32003A
S11313103B0000F035FD00F039FF0090DFF8B00528
S113132001990160DFF8B00500990160DFF830052C
S1131330006800F0FDFCDFF8A465D6E9002300F0A6
S11313401FFDDFF89825C2E90001DFF818050068E1
S113135000F0EEFCDFF88865D6E9002300F010FD0C
S1131360DFF87C25C2E90001DFF85805DFF8F01446
S113137009680160DFF85005DFF8E81409680160C6
S1131380DFF820050168DFF85C05006800F052FC16
S113139000F0CEFC06000F00DFF84C05006800F0FA
S11313A0C7FCDFF818C5DCE9002300F05DFD32005E
S11313B03B0000F0E5FC06000F00DFF83005016893
S11313C0DFF8E404006800F035FC00F0B1FC320002
S11313D03B0000F0D5FC06000F00DFF814050068A0
S11313E0210000F027FC00F0A3FC32003B0000F0D9
S11313F0C7FC00F0CBFEDFF8FC140860DFF8AC0497
S1131400016891F00041DFF8F004006800F012FC7C
S113141000F08EFC06000F00DFF8E004006800F026
S113142087FCDFF89CC4DCE9002300F01DFD02000A
S11314300B003000390000F0E9FD06000F00DFF872
S1131440C0040168DFF86804006800F0F3FB00F0F2
S11314506FFC02000B003000390000F0D7FD0600DD
S11314600F00DFF8A0040068290000F0E3FB00F09F
S11314705FFC02000B003000390000F0C7FD00F0F3
S113148085FEDFF884140860DFF81804016891F021
S11314900041DFF85004006800F0CCFB00F048FC89
S11314A006000F00DFF84004006800F041FCDFF89C
S11314B00CC4DCE9002300F0D7FC02000B00300070
S11314C0390000F0A3FD06000F00DFF820040168D6
S11314D0DFF8D403006800F0ADFB00F029FC020043
S11314E00B003000390000F091FD06000F00DFF81A
S11314F000040068210000F09DFB00F019FC0200CC
S11315000B003000390000F081FD00F03FFEDFF8F1
S1131510FC130860DFF894030168DFF8DC0300685B
S113152000F088FB00F004FC06000F00DFF8CC0399
S1131530006800F0FDFBDFF88843D4E9002300F0E5
S113154093FC32003B0000F01BFC06000F00DFF8A8
S1131550B0030168DFF85803006800F06BFB00F08B
S1131560E7FB32003B0000F00BFC06000F00DFF845
S113157094030068290000F05DFB00F0D9FB320001
S11315803B0000F0FDFB00F001FEDFF8841308606F
S1131590804804880599DFF85C03006800F0BCFE0D
S11315A000F0CEF910FA84F0DFF868130860794887
S11315B004880499DFF85003006800F0ADFE00F0E1
S11315C0BFF910FA84F0DFF85013086071480488FA
S11315D00399DFF83803006800F09EFE00F0B0F9CC
S11315E010FA84F0DFF8341308606A48048802991A
S11315F0C748006800F090FE00F0A2F910FA84F0E9
S1131600C7490860C3480068C6490968401A1F28CA
S113161005DBC44800681E30BE4908600CE0BD48C4
S11316200068C0490968401A10F11E0F04DABD4869
S113163000681E38B7490860B7480068BA490968A5
S1131640401A1F2805DBB84800681E30B2490860FC
S11316500CE0B1480068B4490968401A10F11E0F43
S113166004DAB14800681E38AB490860AB4800682A
S1131670AE490968401A1F2805DBAC4800681E30D3
S1131680A64908600CE0A5480068A8490968401A02
S113169010F11E0F04DAA54800681E389F4908603F
S11316A09F480068A2490968401A1F2805DBA04822
S11316B000681E309A4908600CE0994800689C490B
S11316C00968401A10F11E0F04DA994800681E38A0
S11316D0934908608F480068B0F57A7F04DA8D4832
S11316E04FF47A71016009E08A48006840F2C771DA
S11316F0884203DB874840F2C6710160864800686F
S1131700B0F57A7F04DA84484FF47A71016009E015
S11317108148006840F2C771884203DB7E4840F28A
S1131720C67101607D480068B0F57A7F04DA7B48B1
S11317304FF47A71016009E07848006840F2C7719B
S1131740884203DB754840F2C67101607448006842
S1131750B0F57A7F26DA72484FF47A7101602BE093
S113176001004040482300209A9999999999C93FCA
S1131770010000409999B9BF142700200000E143FB
S11317800000D0BFA42600200000044000408F4089
S113179000C062407C04FF1FAC2200201027002000
S11317A000B006405E48006840F2C771884203DB1F
S11317B05B4840F2C6710160594803689BB25748C0
S11317C0026892B25448016889B25248006880B2F3
S11317D002F067FC53484F490968016052484E497A
S11317E00968016051484D490968016050484C49F5
S11317F00968016017480078002807D04D4802683E
S11318004D4801684D48006802F0DCF909B0BDE8B4
S1131810F08F00BF19270020092700209404FF1F20
S11318209004FF1FE4260020E826002000207C40CE
S1131830C022002000707D40C4220020C822002065
S1131840CC22002000C09240B81E85EB51B8BE3FA8
S11318500827002018270020FC2200200023002055
S11318605809FF1F5C09FF1FBC2200200000244010
S11318709999B93F0000C8410100C841782300206C
S11318807C2300208C04FF1F4005FF1F142300202D
S11318909999E93F4805FF1F182300205005FF1FB1
S11318A05805FF1F68230020702300206C230020AC
S11318B07423002080230020842300203005FF1F90
S11318C03805FF1F60230020642300203333D33FF7
S11318D0882300206666E63F8C2300202005FF1F36
S11318E02805FF1F5C04FF1F6404FF1F6C04FF1F17
S11318F07404FF1F4C2300206004FF1F6804FF1FB3
S11319007004FF1F7804FF1F50230020542300207D
S1131910582300201C2300202023002024230020FF
S1131920282300209804FF1F9C04FF1FA004FF1F0E
S1131930A404FF1FB8220020B4220020B0220020FB
S11319404100090E7F3915D4D1F11F0114D4400090
S113195007D2C00140F00040C84048BF6FF00040CB
S11319607047C00140F00040C8404CBF4FF00040F9
S1131970404270470020704700424FF0004058BF7B
S1131980C0437047002848BF404270472DE9F041EA
S113199007000C0090461D003800C0B200F070F83B
S11319A006003800C0B200F055F8002801D101202B
S11319B023E0E4B24FF4807140F824105FFA88F811
S11319C0B8F1010F13D170690121A140084370617E
S11319D0EDB2012D05D130680121A14008433060EA
S11319E00AE030680121A1408843306004E0706956
S11319F00121A140884370610020BDE8F08138B521
S1131A000C001500C0B200F03BF8EDB2002D05D17A
S1131A1001680122A2409143016004E001680122AF
S1131A20A2401143016031BD10B50C00C0B200F0FA
S1131A3027F80069E04010F00100C0B210BD10B5F5
S1131A400C00C0B200F01CF8C1680122A24011438E
S1131A50C16010BDC0B2002806D0022808D005D34A
S1131A60042809D006D309E0104870471048FCE761
S1131A701048FAE71048F8E71048F6E70020F4E7C2
S1131A80C0B2002806D0022808D005D3042809D003
S1131A9006D309E00A4870470A48FCE70A48FAE70F
S1131AA00A48F8E70A48F6E70020F4E70090044003
S1131AB000A0044000B0044000C0044000D0044032
S1131AC000F00F4040F00F4080F00F40C0F00F4096
S1131AD000F10F4090EA010F44BF81F0004100F093
S1131AE023BC00BF431A4FF000423EBF5340C01A0C
S1131AF0C91800BFD3095FEAD05C13EB400F34BFB1
S1131B00B3EB410F40E07CEBD1530CD342EA01210B
S1131B1022D8D1EB402009D3400A28BF5FEA500104
S1131B2040EBCC507047401A15D04002B0FA80F216
S1131B30521C9040400A4FEA3C23B3EB026384BF3B
S1131B4000EB730007E040F400001A16DB07C2F153
S1131B500102D04018437047182BFCDC31FA03F221
S1131B6002FA03F3591A38BF42F00102D2EB4020C3
S1131B703CBF4000ACF1010C5FEACC5CC20572F1E1
S1131B8000414CEB5020704713EB400F0FD24B0039
S1131B9009D0ACEBD153022B03DB4902172BDDDD5B
S1131BA070479143401A4300D5D10020704713EB8E
S1131BB0410FD0D36FF00000704750F8041B61B19F
S1131BC050F8042BD30744BFA9F101039A1800234A
S1131BD042F8043B091FFAD1EFE770474FF0807CCD
S1131BE01CEB400F94BF1CEB410F05E040EA010CD5
S1131BF05FEA4C0C01D28142704718BF884270479B
S1131C00002840F10980F446404200F005F850F005
S1131C1000406047002800BF0AD0B0FA80F1884035
S1131C20D1F19D01C905020672F1004241EB102079
S1131C3070477047FF2212EAD05C1DBF12EAD153ED
S1131C40944593422BE09C44D30780EA01021A4056
S1131C5043EA002043EA0121A1FB0030410038BFE0
S1131C6040007CF17F010BDBFE294ADA5B0842EA83
S1131C70C15153EA006373F1004C51EB10207047DB
S1131C80D1F1080CDCF120012FDB5B0810FA01F123
S1131C900B4373F1004120FA0CF050417047944516
S1131CA01CBF02EAD153934280EA010202F00042CF
S1131CB01DD0400019D0490017D05BB9634514D03A
S1131CC00902B1FA81F39940BCEB030CC00140F066
S1131CD00040C1E70002B0FA80FC10FA0CF0B3EB4C
S1131CE00C0CC90141F00041B6E7100070474000F8
S1131CF00AD0490008D010F1807F94BF11F1807F91
S1131D0002E042F0FF407047D04370474FF0807CC0
S1131D101CEB400F94BF1CEB410F05E040EA010CA3
S1131D205FEA4C0C01D28842704718BF8142704769
S1131D305FF0FF0C1CEAD05114BF614506E0C110EE
S1131D40400721F0E04101F16051704779B900F09A
S1131D50004100020AD0B0FA80FC00FA0CF001F154
S1131D606051A1EB0C5101EBD021400570474102B9
S1131D700CBF40F4E0016FF0000100207047000048
S1131D8070B44FF0004591EA030C44BF6B4000F07F
S1131D9047B900BF841A71EB030603D2001BB1419B
S1131DA0121973414FF4001C1CEB410F34BF7CEB40
S1131DB0430443E00C0DA4EB1356352E50DC45EAE6
S1131DC0C323DB0A45EAC121C912B6F120050DDDA2
S1131DD063FA05F6EB4086EA0305124218BF45F0A4
S1131DE00105C01851F100010CD213E062FA06F5A6
S1131DF0F2405540F3415A40B340F3405A408018F2
S1131E00594107D349085FEA30005FEA350528BF26
S1131E1045F0010501F58011420875F1004250F1C9
S1131E20000041EB045170BC4FF4001C1CEB410F4B
S1131E3038BF70470020090D090570471CEB410F9E
S1131E4010D252EA43060BD0BCEB410F05D80C0D5F
S1131E50AB43661E342EB5DD02E0AB438018594116
S1131E6070BC704770BC7047B0B581EA030C0CF0CD
S1131E70004C40F2FF7515EA11541DBF15EA1357C3
S1131E80AC42AF4239E0E41923EA455343F48013EA
S1131E90C90241F0004141EA505EC7021100A7FBAC
S1131EA0020200284FF00000EEFB01204FF0000179
S1131EB0E3FB072118BF42F0010240180021494109
S1131EC0E3FB0E01A4F580640F0302D252004041EB
S1131ED0494154F101046CDD470872F1004250F1AC
S1131EE0000051EB0451A1F580115CBF41EA0C01E3
S1131EF0B0BD4CEA05510020B0BD05EA1357AC4211
S1131F0014BFAF4241E050EA410E1CBF52EA430EF7
S1131F1002E061460020B0BD24423C441BD15FEA8C
S1131F20070EF6D0090302BF01460020AEF1140EDD
S1131F30B1FA81F7AEEB070401FA07FE0C37C7F1DB
S1131F40200100FA07F7C8404EEA000E23EA455381
S1131F5043F48013A2E733F00043B3FA83F704BFDA
S1131F60B2FA82FE77440B3FE41BB7F1200E2FBF79
S1131F7002FA0EF3BB40C7F1200E22FA0EFE38BF60
S1131F8043EA0E03BA40641C82E750EA410E14BFD0
S1131F9052EA430E6FF000014FF4001717EB430FA2
S1131FA08ABF194617EB410FB5E74CEA05510020EB
S1131FB0B0BDD4F10104B4F120070FDAC4F1200755
S1131FC0520828BF42F0010210FA07F501FA07F798
S1131FD0E1BF2A43E0403843E1400FE0352C98DC70
S1131FE0C7F1200452EA400220FA07F218BF42F077
S1131FF0010231FA07F0A1400A43002172F10042C4
S113200050F1000051EB0C01B0BD000070B44FF072
S1132010004591EA030F44BF6B40FFF7BBBE00BF0E
S1132020841A71EB030604D26E40001BB1411219ED
S113203073414FF4001C1CEB410F34BF7CEB43068F
S113204084E00C0DA4EB1356362E7DDC012E43DC0C
S113205045EAC32343EA525312BFD20292025B08F9
S1132060240545EAC12141EA5051D2EBC0209941EF
S113207025D407D1B0FA80F610FA06F164D0002016
S1132080203608E0B1FA81F6B140C6F1200220FA08
S113209002F21143B0404FEAF474B4EB465434F006
S11320A001064FEA74040AD8D6F50016760D04F03A
S11320B00044F04061FA06F25040F1404840C00A42
S11320C040EA415021F0004128BF5FEA500550F139
S11320D0000044EBD12137E045EAC323DB0A45EA9B
S11320E0C121C90AB6F120050EDD42EA0242120CF2
S11320F0C5F1200603FA06F6EB4042EA06056D42F6
S1132100984161F100010DE062FA06F5F240554094
S113211063FA06FC82EA0C02F3405A406D42904195
S113212061EB030111F4801F05D1641E620502D026
S11321306D004041494121F48011430875F1004389
S113214050F1000041EB045170BC70471CEB410F8F
S113215015D223F0004352EA43060BD04FEA4C0C4D
S1132160BCEB410F04D80C0D661E342EB7DDEBE733
S1132170801A994150EA410608BF0021E4E708BFEC
S11321801CEB430F28BF6FF00001DDE74FEAF17C41
S1132190BCF1E04C2CBFBCF5001F11E05FEA4C0C15
S11321A034BFBCF17F5F2EE05FEA9C0C4FEA0C1C4D
S11321B04FEA3C0CC10071F100414CEB5070704788
S11321C0C90241EA5051C00218BF41F0010141F077
S11321D000414FEA6C50C0F10900212810D240EAB6
S11321E0CC7CCCF1200C11FA0CF070F10040CCF155
S11321F0200C21FA0CF00CF0004C40EB0C00704762
S11322004FEACC707047490011F5001F04D84FEA1B
S1132210CC10FF30C0057047C817704710B5FF23B6
S113222013EAD0541DBF13EAD1529C429A4239E0BA
S1132230A41ADA0780EA0103134042EA012142EAC0
S11322400020421A3CBF641E01EB4202090AB2FBA1
S1132250F1FE01FB1E221202B2FBF1F001FB10227F
S11322606EF30F201202B2FBF1FE4EEA00207F341F
S113227006DDFE2C24DA53EA500050EBC45010BDA6
S1132280D4F1020401FB1E2240F08071192C1DDCE4
S113229021FA04F0C4F12004A140114371F1004279
S11322A0584110BD9C421ABF03EAD1529A420FE032
S11322B080EA010E0EF00043400004D0490016D11C
S11322C043F0FF4010BD490008BFD343180010BDC0
S11322D09C4205D1D21AF7D001F00041484010BD0C
S11322E04A0212BF0846484000F0004010BD4AB9F7
S11322F00902B1FA81F2914044B1A418C00140F03E
S113230000409EE7C90141F0004152420002B0FA88
S113231080F4A040141B94E790EA010F44BF81F0BD
S11323200041FFF7DFBB00BF421A3CBF801A891887
S11323304FF0004CC0F3C752FF2A24D0C1F3C75357
S113234013B3D21AD2F1190327DD4CEA01214CFA56
S113235003F321EA0303D140C20D4CEA00204018E4
S113236034BF20EA0C004CEA5000D20553EA006363
S113237073EB0C0C52EB1020420012F1807F38BF3B
S11323807047C00DC0057047490212BF9A4200EB66
S11323905120F8E7D2F11703D9D57047010040F175
S11323A00980F446404200F005F851F000416047CE
S11323B0010000BF09D0B0FA80F18840C91CC1F502
S11323C08461090501EBD02140057047F0B540F266
S11323D0FF7581EA030C0CF0004C15EA11541DBF83
S11323E015EA1357AC42AF42E5E0BC41C1F3130117
S11323F0C3F31303801A994143F4801304D2641E77
S11324004000494180185941C90241EA5051B1FB89
S1132410F3F603FB1611A2FB0675D7EBC020A94106
S113242002D2761E80185941C90241EA5051B1FBCB
S1132430F3FE03FB1E11A2FB0E75D7EBC020A941CE
S113244003D2AEF1010E80185941890241EA90513C
S1132450760546EA8E2EB1FBF3F603FB1611A2FBBA
S11324600675D7EB8020A94102D2761E8018594107
S1132470C90241EA50514EEA060EB1FBF3F603FBE2
S11324801611A2FB0675D7EBC020A94102D2761E15
S113249080185941C90241EA5051B1FBF3F703FBDB
S11324A01711A2FB0735D3EBC020A94167F1000740
S11324B00CBF004247F0010766F3D5274FEA1E31EF
S11324C0B80814F5806412DDBD0775F1004250EBC5
S11324D00E5051EB045111F5801F5CBF41EA0C0111
S11324E0F0BD4CF07F6141F0E0410020F0BDBD073C
S11324F06D0840EA0E5041F48011D4F10104B4F1A6
S113250020060ADAC4F120060200E04001FA06F3CC
S1132510E1401843B24015430EE0342C13DCC6F1FD
S1132520200445EA40056D0820FA06F2154321FA15
S113253006F0A1400D43002175F1004250F1000066
S113254051EB0C01F0BD00205FEA0C01F0BDCFB9E6
S113255092185B41B3FA83F704BFB2FA82F6BF194B
S11325600B3FB7F120062FBF02FA06F3BB40C7F1B9
S1132570200622FA06F638BF3343BA401CB1E419E8
S1132580641E33E77F4231F00041B1FA81F404BFA5
S1132590B0FA80F6A4190B3CB4F120062FBF00FA60
S11325A006F1A140C4F1200620FA06F638BF3143F3
S11325B0A0403C1B1AE7AC421ABF05EA1357AF42CE
S11325C012E050EA41061CBF52EA4306BFE750EA54
S11325D04107304661461CBF41EA0551F0BD52EA4D
S11325E0430C08BFC143F0BD00204FF4001616EBA6
S11325F0410F98BF16EB430F08BF16EB410F24BFE2
S1132600C14305E016EB430F0CBF61464CEA05518C
S1132610F0BD00004FF4001C1CEB410F94BF1CEBF9
S1132620430F09E041EA030C50EA4C0C52EA0C0C4B
S113263003D28B4208BF8242704714BF9942904232
S11326407047000080B502212F2001F0F7FF01211F
S1132650442001F0F3FF00215B2001F0EFFF01BDF6
S113266080B5012301220F210020FFF78FF90023F9
S1132670012212210220FFF789F9002301220621F9
S11326800420FFF783F90123012202210420FFF72C
S11326907DF90023012203210120FFF777F90023AC
S11326A001220A210120FFF771F9002301221021E0
S11326B00120FFF76BF90123012215210120FFF707
S11326C065F901F0C3FB01F059FD002001F0C4FFDE
S11326D0012001F0C1FF5FF46122A6480168A64809
S11326E002F05AF94FF46142A2480168A34802F08B
S11326F053F92D21A04802F031FA2F219F4802F00E
S11327002DFA9C480068FFF749FE00229C4BFFF716
S1132710ABFB00F061F90100002002F051FA5FF018
S1132720FF31012002F04CFA012203210120FFF7BE
S113273066F901220A210120FFF761F90122102123
S11327400120FFF75CF902F0BDFA00F0FCFD00F097
S113275080F900F0B4F900F0F3FF00220A2101200F
S1132760FFF74DF902F0C0FB0028FBD00022102136
S11327700120FFF744F90B200090012300220521DA
S1132780804802F0D3FB80497E4802F05EFC6B2057
S113279001F0CBFEFFF756FF012002BD10B5002467
S11327A000E0641CA4B2B4F57A7F45D20122122160
S11327B00220FFF724F900F045F90022122102203B
S11327C0FFF71DF9714800F02DF9714800780028D1
S11327D012D06F48002101706E4800886E49098844
S11327E011FA80F0022190FBF1F06A4908806B48ED
S11327F00078401C69490870684800780A28D0D3DA
S113280064480088FFF706FA654908606148008853
S1132810FFF700FA634908600EE003210120FFF787
S11328200EF90A210120FFF70AF910210120FFF710
S113283006F9564800F0F6F856480088801E80B223
S11328401328EAD2012010BD71B581B00C0001AD8E
S1132850002605E02978200002F07BF96D1C761C27
S1132860042EF7D373BD80B50020494909780029A7
S113287010D04E480121017045480021017046489E
S11328800088FFF7C7F902000721494802F032FC2B
S1132890484908604748006802F058FE4649FFF777
S11328A09DF902D8454901220A7002BD38B5444851
S11328B00021017000243C4800F0B4F8414800684D
S11328C0040041F27170844201DB41F270742A49C0
S11328D00D002000FFF794F92900FFF7B5FF3A48EF
S11328E000F0A0F80F210020FFF7A9F8002511E05F
S11328F02149364850F82500FFF7A6FF672095FBCD
S1132900F0F100FB1150002803D10F210020FFF744
S113291096F86D1CA542EBDB002511E016492C4806
S113292050F82500FFF790FF672095FBF0F100FBBE
S11329301150002803D10F210020FFF780F86D1CEF
S1132940A542EBDB002511E00B49224850F8250095
S1132950FFF77AFF672095FBF0F100FB1150002888
S113296003D10F210020FFF76AF86D1CA542EBDBB1
S113297031BD00000027002000A0064000B0064042
S11329800000044000D004405B5400000000F0410B
S11329901627002006270020042700200D270020EA
S11329A0A0220020A4220020000048430C2700207D
S11329B0A82600209423002000003443122700207E
S11329C017270020A82200200000F0426009FF1F02
S11329D02067FF1FE0C4FF1FF446400D40EAC120FA
S11329E0490006D200F00EF8004248BF6FF00040E4
S11329F0604700F007F84FF0004188428CBF08465A
S1132A004042604740F00040490DA1F58061491CF7
S1132A1005D4D1F11F0154BFC840C01770474FF00F
S1132A200000704710B5040045F6C050FFF7F2F8F7
S1132A302100FFF7FFF8FEF783FF00E0401E0028A7
S1132A40FCD110BD4FF4C87000E0401E0028FCD13A
S1132A50704780B55FF07E50FFF7E4FF00233E220D
S1132A60D021012001F0F1FE0028F7D15FF07E5063
S1132A70FFF7D8FF07231522D021012001F0E5FE3E
S1132A800028F7D15FF07E50FFF7CCFF1E231622FB
S1132A90D021012001F0D9FE0028F7D15FF07E504B
S1132AA0FFF7C0FF00231722D021012001F0CDFE43
S1132AB00028F7D15FF07E50FFF7B4FF01BD80B569
S1132AC05FF07E50FFF7AEFF00233E22D0210020AE
S1132AD001F0BBFE0028F7D15FF07E50FFF7A2FFA4
S1132AE007231522D021002001F0AFFE0028F7D1E2
S1132AF05FF07E50FFF796FF1E231622D0210020A0
S1132B0001F0A3FE0028F7D15FF07E50FFF78AFFA3
S1132B1000231722D021002001F097FE0028F7D1CE
S1132B205FF07E50FFF77EFF01BDF8B506200090F0
S1132B30DFF8B03B1D22D021002001F0D9FE00288F
S1132B40F4D1DFF8A00B00780002DFF8981B497875
S1132B504018DFF8901B89780902DFF8882BD278B7
S1132B608F18DFF8801B09790902DFF8782B527976
S1132B708E1800B2FFF744F8FFF7DAF80022DFF806
S1132B80683BFFF723FC04000D00DFF8600B0068CE
S1132B90FFF7CEF80022DFF8583BFFF717FC0022BE
S1132BA0DFF8503BFFF760F902000B00200029001A
S1132BB0FFF72CFAFFF7EAFADFF83C1B08603FB294
S1132BC03800FFF71DF8FFF7B3F80022DFF8183BD1
S1132BD0FFF7FCFB04000D00DFF8200B0068FFF793
S1132BE0A7F80022DFF8083BFFF7F0FB0022DFF82C
S1132BF0043BFFF739F902000B0020002900FFF71E
S1132C0005FAFFF7C3FADFF8F81A086036B23000A5
S1132C10FEF7F6FFFFF78CF80022DFF8CC3AFFF757
S1132C20D5FB04000D00DFF8DC0A0068FFF780F82C
S1132C300022DFF8BC3AFFF7C9FB0022DFF8B43A00
S1132C40FFF712F902000B0020002900FFF7DEF95C
S1132C50FFF79CFADFF8B01A0860012024E0C0B244
S1132C60DFF8A81A11EB8001C0B2DFF8A02A52F8ED
S1132C70202041F8042CC0B2DFF8941A11EB800133
S1132C80C0B2DFF88C2A52F8202041F8042CC0B2DC
S1132C90DFF8801A11EB8001C0B2DFF8782A52F80D
S1132CA0202041F8042C401CC0B20328D7D3DFF8FD
S1132CB05C0ADFF8441A09688160DFF8540ADFF817
S1132CC0401A09688160DFF84C0ADFF83C1A096889
S1132CD08160DFF8380A8068FFF72AF80022DFF8FD
S1132CE0383AFFF7C1F804000D00DFF8200A406805
S1132CF0FFF71EF85FF03332DFF8203AFFF7B4F83D
S1132D0022002B00FFF73CF804000D00DFF8FC095B
S1132D100068FFF70DF8DFF8082ADFF8083AFFF734
S1132D20A3F822002B00FFF72BF85FF06632DFF8E0
S1132D30F839FFF74BFBFFF729FADFF8F0190860C1
S1132D40DFF8CC098068FEF7F3FF0022DFF8C8390A
S1132D50FFF78AF804000D00DFF8B4094068FEF7B5
S1132D60E7FF5FF03332DFF8B439FFF77DF8220074
S1132D702B00FFF705F804000D00DFF89409006844
S1132D80FEF7D6FFDFF89829DFF89839FFF76CF8DB
S1132D9022002B00FEF7F4FF5FF06632DFF888397B
S1132DA0FFF714FBFFF7F2F9DFF884190860DFF886
S1132DB064098068FEF7BCFF0022DFF85C39FFF786
S1132DC053F804000D00DFF84C094068FEF7B0FF2B
S1132DD05FF03332DFF84439FFF746F822002B0066
S1132DE0FEF7CEFF04000D00DFF828090068FEF7A7
S1132DF09FFFDFF82C29DFF82C39FFF735F8220084
S1132E002B00FEF7BDFF5FF06632DFF81C39FFF7D9
S1132E10DDFAFFF7BBF9DFF81C190860DFF81809C1
S1132E200068FEF785FF04000D00DFF8CC08006899
S1132E30FEF77EFF0022DFF8B838FFF715F800220E
S1132E40DFF8B038FFF7C2FA22002B00FEF798FF34
S1132E50FFF79CF9DFF8E0180860DFF8E008006885
S1132E60FEF766FF04000D00DFF894080068FEF723
S1132E705FFF0022DFF87838FEF7F6FF0022DFF864
S1132E807438FFF7A3FA22002B00FEF779FFFFF74F
S1132E907DF9DFF8A8180860DFF8080D0068FEF770
S1132EA047FF04000D00DFF860080068FEF740FFEC
S1132EB00022DFF83C38FEF7D7FF0022DFF8343871
S1132EC0FFF784FA22002B00FEF75AFFFFF75EF9A2
S1132ED0DFF8D01C0860DFF8D80B0068B0F57A7F03
S1132EE029D1DFF854080068DFF8C81BFFF796F90A
S1132EF0DFF8F8170860DFF844080068DFF8B41B4F
S1132F00FFF78CF9DFF8F4170860DFF8980C006815
S1132F10DFF8A01BFFF782F9DFF8E8170860DFF895
S1132F20180800210160DFF8140800210160DFF8AF
S1132F30740C00210160F1BDF8B506200090DFF8A3
S1132F40A4371D22D021012001F0D2FC0028F4D1A5
S1132F50DFF8900700780002DFF8881749784018F6
S1132F60DFF8801789780902DFF87827D2788F187C
S1132F70DFF8701709790902DFF8682752798E188B
S1132F8000B2FEF73DFEFEF7D3FE0022DFF858370D
S1132F90FFF71CFA04000D00DFF81C0B0068FEF7B5
S1132FA0C7FE0022DFF84837FFF710FA0022DFF8E7
S1132FB04437FEF759FF02000B0020002900FFF7F9
S1132FC025F8FFF7E3F8DFF8F41A08603FB2380099
S1132FD0FEF716FEFEF7ACFE0022DFF80C37FFF713
S1132FE0F5F904000D00DFF8C00B0068FEF7A0FE41
S1132FF00022DFF8FC36FFF7E9F90022DFF8F436A7
S1133000FEF732FF02000B0020002900FEF7FEFF4E
S1133010FFF7BCF8DFF8941B086036B23000FEF707
S1133020EFFDFEF785FE0022DFF8BC36FFF7CEF990
S113303004000D00DFF8780B0068FEF779FE00222B
S1133040DFF8AC36FFF7C2F90022DFF8A836FEF746
S11330500BFF02000B0020002900FEF7D7FFFFF74B
S113306095F8DFF8501B0860012024E0C0B2DFF8B7
S1133070481B11EB8001C0B2DFF83C2B52F8202032
S113308041F8042CC0B2DFF8341B11EB8001C0B24C
S1133090DFF8282B52F8202041F8042CC0B2DFF8C6
S11330A0201B11EB8001C0B2DFF8142B52F8202052
S11330B041F8042C401CC0B20328D7D3DFF8F80A27
S11330C0DFF8F81909688160DFF8F00ADFF8DC1A24
S11330D009688160DFF8E80ADFF8D81A09688160B6
S11330E0DFF8D40A8068FEF723FE0022DFF82836D2
S11330F0FEF7BAFE04000D00DFF8BC0A4068FEF7D4
S113310017FE5FF03332DFF81436FEF7ADFE22000F
S11331102B00FEF735FE04000D00DFF89C0A006862
S1133120FEF706FEDFF8F825DFF8F835FEF79CFE1B
S113313022002B00FEF724FE5FF06632DFF8E8354C
S1133140FFF744F9FFF722F8DFF8081B0860DFF8FF
S11331506C0A8068FEF7ECFD0022DFF8BC35FEF750
S113316083FE04000D00DFF8540A4068FEF7E0FD1A
S11331705FF03332DFF8A435FEF776FE22002B0031
S1133180FEF7FEFD04000D00DFF8300A0068FEF7CC
S1133190CFFDDFF88C25DFF88C35FEF765FE2200C5
S11331A02B00FEF7EDFD5FF06632DFF87C35FFF7AC
S11331B00DF9FEF7EBFFDFF8A01A0860DFF8000A4C
S11331C08068FEF7B5FD0022DFF84C35FEF74CFEB3
S11331D004000D00DFF8E8094068FEF7A9FD5FF080
S11331E03332DFF83835FEF73FFE22002B00FEF7BE
S11331F0C7FD04000D00DFF8C8090068FEF798FD5C
S1133200DFF81C25DFF81C35FEF72EFE22002B000C
S1133210FEF7B6FD5FF06632DFF80C35FFF7D6F83F
S1133220FEF7B4FFDFF8341A0860DFF8340A0068E8
S1133230FEF77EFD04000D00DFF880080068FEF74D
S113324077FD0022DFF8A834FEF70EFE0022DFF837
S1133250A434FFF7BBF822002B00FEF791FDFEF724
S113326095FFDFF8FC190860DFF8F8090068FEF73D
S11332705FFD04000D00DFF834090068FEF758FD17
S11332800022DFF86C34FEF7EFFD0022DFF864342F
S1133290FFF79CF822002B00FEF772FDFEF776FF85
S11332A0DFF8C0190860DFF8C0090068FEF740FDC8
S11332B004000D00DFF8FC080068FEF739FD002269
S11332C0DFF82C34FEF7D0FD0022DFF82834FFF7B6
S11332D07DF822002B00FEF753FDFEF757FFDFF8C1
S11332E088190860DFF8C8070068B0F57A7F29D12B
S11332F0DFF86C090068DFF8BC17FEF78FFFDFF812
S1133300B8170860DFF85C090068DFF8A817FEF753
S113331085FFDFF894180860DFF84C090068DFF8CF
S11333209417FEF77BFFDFF888180860DFF8300990
S113333000210160DFF82C0900210160DFF8280971
S113334000210160F1BD80B55FF07E50FFF76AFB9C
S113335000AB00228021012001F012FA0028F7D1ED
S11333609DF800000328FBD15FF07E50FFF75AFB65
S113337010230D228021012001F067FA0028F7D1E3
S11333805FF07E50FFF74EFB00AB2022802101202E
S113339001F0F6F90028F7D19DF8000010F00F00B5
S11333A08DF800009DF8000050F010008DF800002A
S11333B05FF07E50FFF736FB9DF80030202280211D
S11333C0012001F042FA0028F6D15FF07E50FFF7A9
S11333D029FB00AB30228021012001F0D1F9002823
S11333E0F7D19DF8000010F0FC008DF800009DF866
S11333F000008DF800005FF07E50FFF713FB9DF88E
S1133400003030228021012001F01FFA0028F6D17B
S11334105FF07E50FFF706FB00AB352280210120D0
S113342001F0AEF90028F7D19DF8000010F0F1008A
S11334308DF800009DF8000050F004008DF80000A5
S11334405FF07E50FFF7EEFA9DF8003035228021C0
S1133450012001F0FAF90028F6D15FF07E50FFF761
S1133460E1FA01BDF8B5062000909E4B02228021AE
S1133470012001F03DFA0028F5D19A484078994995
S1133480097851EA00249748C0789649897851EA26
S11334900025944840799349097951EA0026DFF8D8
S11334A010060068B0F57A7F23D824B22000FEF716
S11334B0A7FBDFF8B8170968FEF72EFFDFF8AC1793
S11334C008602DB22800FEF79BFBDFF8A4170968FB
S11334D0FEF722FFDFF89817086036B23000FEF7D7
S11334E08FFBDFF890170968FEF716FFDFF88417E3
S11334F00860DFF8BC050068B0F57A7F29D1DFF8F1
S11335006C070068DFF8AC15FEF788FEDFF8681773
S11335100860DFF85C070068DFF89815FEF77EFEA8
S1133520DFF858170860DFF84C070068DFF88415E7
S1133530FEF774FEDFF848170860DFF8480700213B
S11335400160DFF8440700210160DFF84007002133
S11335500160DFF85C050068B0F57A7F40F2BF8057
S1133560012024E0C0B2DFF8281711EB8001C0B2BB
S1133570DFF81C2752F8202041F8042CC0B2DFF8F1
S1133580141711EB8001C0B2DFF8082752F820208D
S113359041F8042CC0B2DFF8001711EB8001C0B26F
S11335A0DFF8F42652F8202041F8042C401CC0B265
S11335B01428D7D324B22000FEF722FBDFF8D0165C
S11335C0C8642DB22800FEF71BFBDFF8C816C864D8
S11335D036B23000FEF714FBDFF8BC16C8640026D0
S11335E00024002500272AE0FFB2DFF8A40650F8E3
S11335F02700DFF8A816FEF711FE01003000FEF7E1
S11336008BFE0600FFB2DFF88C0650F82700DFF8C7
S11336108C16FEF703FE01002000FEF77DFE040079
S1133620FFB2DFF8740650F82700DFF87016FEF7D3
S1133630F5FD01002800FEF76FFE05007F1CFFB2B8
S1133640142FD1D33000DFF830160968FEF742FAA0
S1133650FEF76EFBDFF84826DFF84836FEF704FC79
S11336600022DFF84436FEF7B1FEFEF78FFDDFF8E7
S11336703C1608602000DFF804160968FEF72AFAF1
S1133680FEF756FBDFF81826DFF81836FEF7ECFBDA
S11336900022DFF81436FEF799FEFEF777FDDFF817
S11336A010160860DFF8D8050068DFF80816FEF782
S11336B033FE01002800FEF70DFAFEF739FBDFF8B0
S11336C0E025DFF8E035FEF7CFFB0022DFF8D83540
S11336D0FEF77CFEFEF75AFDDFF8DC150860F1BD4D
S11336E0000000009823002000C02C40302400205B
S11336F00000044000408F40DC23002034240020DC
S1133700E023002038240020E42300203C2400206F
S113371048240020542400200000E03F3333D33FEA
S11337209A9999999999C93F66A64C401824002002
S11337301C24002020240020E8230020EC23002067
S113374080B55FF07E50FFF76DF900AB0022802159
S1133750002001F015F80028F7D19DF80000032897
S1133760FBD15FF07E50FFF75DF910230D2280211D
S1133770002001F06AF80028F7D15FF07E50FFF7CF
S113378051F900AB20228021002000F0F9FF00282D
S1133790F7D19DF8000010F00F008DF800009DF89F
S11337A0000050F010008DF800005FF07E50FFF72D
S11337B039F99DF8003020228021002001F045F8DD
S11337C00028F6D15FF07E50FFF72CF900AB3022D1
S11337D08021002000F0D4FF0028F7D19DF80000DC
S11337E010F0FC008DF800009DF800008DF800003A
S11337F05FF07E50FFF716F99DF8003030228021EB
S1133800002001F022F80028F6D15FF07E50FFF787
S113381009F900AB35228021002000F0B1FF002817
S1133820F7D19DF8000010F0F1008DF800009DF82C
S1133830000050F004008DF800005FF07E50FFF7A8
S1133840F1F89DF8003035228021002000F0FDFFC2
S11338500028F6D15FF07E50FFF7E4F801BDF8B51B
S113386006200090DFF8543402228021002001F069
S11338703FF80028F4D1DFF844044078DFF83C1422
S1133880097851EA0024DFF83404C078DFF82C14F6
S1133890897851EA0025DFF824044079DFF81C1404
S11338A0097951EA002682480068B0F57A7F23D866
S11338B024B22000FEF7A4F9DFF804140968FEF727
S11338C02BFDDFF8FC1308602DB22800FEF798F9F1
S11338D0DFF8F0130968FEF71FFDDFF8E81308604E
S11338E036B23000FEF78CF9DFF8DC130968FEF716
S11338F013FDDFF8D41308606D480068B0F57A7FD3
S113390026D1DFF8BC0300686A49FEF787FCDFF8BC
S1133910BC130860DFF8AC0300686649FEF77EFC60
S1133920DFF8AC130860DFF8A00300686149FEF714
S113393075FCDFF8A0130860DFF89C030021016028
S1133940DFF8980300210160DFF89403002101608F
S113395057480068B0F57A7F40F2A980012024E03E
S1133960C0B2DFF8801311EB8001C0B2DFF874231A
S113397052F8202041F8042CC0B2DFF86C1311EB8C
S11339808001C0B2DFF8602352F8202041F8042CF3
S1133990C0B2DFF8581311EB8001C0B2DFF84C233A
S11339A052F8202041F8042C401CC0B21428D7D36C
S11339B024B22000FEF724F9DFF82813C8642DB2DE
S11339C02800FEF71DF9DFF82013C86436B2300072
S11339D0FEF716F9DFF81413C86400260024002546
S11339E0002724E0FFB2BF4850F82700AB49FEF798
S11339F015FC01003000FEF78FFC0600FFB2BA4848
S1133A0050F82700A549FEF709FC01002000FEF745
S1133A1083FC0400FFB2B54850F827009F49FEF725
S1133A20FDFB01002800FEF777FC05007F1CFFB2B8
S1133A30142FD7D33000A5490968FEF74BF8FEF7D9
S1133A4077F9974A974BFEF70FFA0022964BFEF749
S1133A50BDFCFEF79BFBA649086020009C49096851
S1133A60FEF738F8FEF764F98D4A8E4BFEF7FCF941
S1133A7000228D4BFEF7AAFCFEF788FB9D490860E7
S1133A80944800688B49FEF747FC01002800FEF7C4
S1133A9021F8FEF74DF9824A824BFEF7E5F9002240
S1133AA0814BFEF793FCFEF771FB93490860F1BD6F
S1133AB0A426002000007A4460240020AC230020C7
S1133AC070B50026002400258C48002101708C4824
S1133AD0002101708B4800880A30FEF791F88A496A
S1133AE00968FEF77BF804D80021122001F0BAF926
S1133AF057E0022001F0AAF90600300651D504204F
S1133B0001F0A4F97E490870032001F09FF97B4974
S1133B1008707A4890F90000FEF740FC04000D009C
S1133B2079480068FEF704F922002B00FEF79CF99F
S1133B305FF03332754BFEF797F9754A754BFEF714
S1133B4045FC04000D00744AD2E9000122002B0058
S1133B50FEF716F9704AC2E90001694890F90000BD
S1133B60FEF71CFC04000D0067480068FEF7E0F84F
S1133B7022002B00FEF778F95FF03332634BFEF737
S1133B8073F9634A634BFEF721FC04000D00634A9A
S1133B90D2E9000122002B00FEF7F2F85F4AC2E9E5
S1133BA0000170BDF023002064240020B023002015
S1133BB068240020B42300206C24002078240020F2
S1133BC084240020F0B506000C0017000825544892
S1133BD00068FEF7ADF80022524BFEF745F90022CB
S1133BE0314B01F00BFD08D24D4801685FF07E5067
S1133BF0FEF792FB4A4908602BE04B480068EDB29F
S1133C00B0FBF5F105FB1100002822D147480068FC
S1133C1041F2707188421CDA44480068401C4349F0
S1133C20086043480068066041480068001D404938
S1133C3008604048006804603E480068001D3D4933
S1133C4008603D48006807603B480068001D3A4929
S1133C500860F0BD00240020042400200824002073
S1133C60B8230020BC230020C02300208C25002082
S1133C709025002094250020802500208425002004
S1133C8088250020A0230020A4230020A8230020AE
S1133C9090240020E0240020302500200000A041D2
S1133CA008AC1C5A643BCF3F0040AF400C240020BA
S1133CB010240020001280C6142400209823002021
S1133CC094260020982600209C2600208826002088
S1133CD08C26002090260020F4230020F8230020C6
S1133CE0FC23002098250020E82500203826002009
S1133CF024240020282400202C2400200E27002027
S1133D000F27002006270020E02600203333D33F6E
S1133D109A99999999194D404005FF1F4805FF1F2D
S1133D20A026002000000440A4260020A822002091
S1133D308004FF1F8404FF1F8804FF1F38B50FB4DD
S1133D40DDE90201C1F30A5340F2FF7293420BD042
S1133D5013B14FF0FF350DE0090350EA11300CBFE9
S1133D6000256FF0010505E0090350EA113014BF86
S1133D7002250125DDE90001C1F30A53934217D05E
S1133D8073B14FF0FF32012D1ADA019800281DD5C6
S1133D90DDE9000181F00041CDE90001082416E0CD
S1133DA0090350EA11300CBF00226FF00102EAE768
S1133DB0090350EA113018BFDDE9000142D10122A4
S1133DC0022D25D1DDE9020105B030BD00240398A0
S1133DD0002807D5DDE9020181F00041CDE90201A7
S1133DE084F00604DDE90201DDE9002301F006FCAC
S1133DF002D2FEF7EBFA1DE0002D06D5DDE9000145
S1133E00DDE90223FEF7E2FA16E00020002113E0C8
S1133E10954207BF00200C4900200021019B002B84
S1133E204CBF08240024039B002B48BF84F00604E5
S1133E30012A01D184F00204224605B0BDE83040D5
S1133E4001F0F6BB05B030BD0000F03FDFF804051B
S1133E504FF440710160DFF800054FF440710160D8
S1133E60DFF8F8044FF440710160DFF8F4044FF414
S1133E7040710160DFF8EC04006850F40070DFF872
S1133E80E4140860DFF8E004006850F00070DFF824
S1133E90D8140860DFF8D404006850F08070DFF8AC
S1133EA0CC140860DFF8C804006850F00800DFF89C
S1133EB0C0140860DFF8B804006830F00400DFF8CC
S1133EC0B0140860DFF8A804006850F02000DFF8A0
S1133ED0A0140860DFF89C04006850F00800DFF8C4
S1133EE094140860DFF88C04006830F00400DFF8F4
S1133EF084140860DFF87C04006850F02000DFF8C8
S1133F0074140860DFF870042C210160DFF86C047D
S1133F10006850F00800DFF864140860DFF85C04FF
S1133F20006830F00400DFF854140860DFF84C0433
S1133F30006850F02000DFF844140860DFF8400403
S1133F40006850F00800DFF838140860DFF8300427
S1133F50006830F00400DFF828140860DFF820045B
S1133F60006850F02000DFF818140860DFF814042B
S1133F702C210160DFF81004006850F00400DFF821
S1133F8008140860DFF80004006840084000DFF807
S1133F90F8130860DFF8F403006850F00400DFF859
S1133FA0EC130860DFF8E403006840084000DFF821
S1133FB0DC130860DFF8D80300210160DFF8D403C4
S1133FC000210160DFF8D00300210160DFF8CC0399
S1133FD000210160DFF8C80300210160DFF8C40399
S1133FE000210160DFF8C00300210160DFF8BC0399
S1133FF000210160DFF8B803006840084000DFF8E2
S1134000B0130860DFF8AC0300210160DFF8A803F7
S113401000210160DFF8A40300210160DFF8A003A0
S1134020006840084000DFF898130860DFF8940344
S113403000210160DFF8900300210160DFF88C03A8
S113404000210160DFF8880300210160DFF88403A8
S113405040F6A6610160DFF8800300210160DFF80B
S11340607C0340F6A6610160DFF8740340F2DB5183
S11340700160DFF8700340F2DB510160DFF8680390
S113408000210160DFF8640340F2DB510160DFF8D6
S1134090600340F2DB510160DFF858030021016046
S11340A0704770B505000C0010001E00ADB2B5F5E8
S11340B0FA6F02D34FF4FA6506E040F2E931ADB28B
S11340C08D4201D24FF47A75A4B2B4F5FA6F02D3DB
S11340D04FF4FA6406E040F2E931A4B28C4201D212
S11340E04FF47A7480B2B0F5FA6F02D34FF4FA60E9
S11340F006E040F2E93180B2884201D24FF47A708E
S1134100B6B2B6F5FA6F02D34FF4FA6606E040F29F
S1134110E931B6B28E4201D24FF47A7680B2FEF71C
S113412047F9B54AB54BFEF751F9FEF755FCAC49D2
S11341300860B6B23000FEF73BF9AF4AAF4BFEF76A
S113414045F9FEF749FCA7490860A4B22000FEF730
S11341502FF9A94AA94BFEF739F9FEF73DFCA3490B
S11341600860ADB22800FEF723F9A34AA34BFEF77B
S11341702DF9FEF731FC9E49086070BD80B56420BE
S113418000F011F80021002000F086F80021002042
S113419000F0C7F80021052000F07EF8002105207A
S11341A000F0BFF801BD10B4954909684FF47A7264
S11341B05143814201D200206CE0802202FB00F2D4
S11341C0B1FBF2F34FF6FF72934262D207228D4C99
S11341D02360402303FB00F3B1FBF3F34FF6FF74BA
S11341E0A3423DD20622874C23604301B1FBF3F383
S11341F04FF6FF74A34233D20522824C236003019D
S1134200B1FBF3F34FF6FF74A34229D204227D4C91
S11342102360C300B1FBF3F34FF6FF74A3421FD234
S11342200322784C23608300B1FBF3F34FF6FF7451
S1134230A34215D20222734C23604300B1FBF3F373
S11342404FF6FF74A3420BD201226E4C2360B1FBE4
S1134250F0F34FF6FF70834202D2002269480360F4
S11342604148006850F080703F490860D2B212F0B3
S1134270070050F0080064490860644800210160A8
S113428063480021016063485E49096801600120B8
S113429000E0002010BC704781B042F211729142DC
S11342A001D300202CE0574A12680092009A521C55
S11342B0514342F21072B1FBF2F1C0B20200002A83
S11342C0032A03D9121F032A1CD928E0254A12689D
S11342D052F40062234B1A60C0B2820002F18042A1
S11342E012F596224FF480635360C0B24A4A2823E1
S11342F042F83030C0B2484A12EBC000416001209D
S113430001B07047174A126852F48052154B1A6074
S1134310C0B2424A4FF4806342F82030E5E70020FF
S1134320EEE781B042F21172914201D300200FE016
S1134330344A12680092009A521C514342F210729D
S1134340B1FBF2F1C0B2344A12EBC000416001206B
S113435001B07047309004403490044048A00440B9
S11343604CA00440388004403C8004403080044029
S11343700C90034014900340009003400C800B40C9
S113438014800B4000800B405490034054800B4039
S1134390649003405C9003406C9003407090034031
S11343A064800B405C800B406C800B4070800B4041
S11343B08090034090900340949003409890034071
S11343C080800B4090800B4094800B4098800B4081
S11343D04C900340089003404C800B4008800B40F5
S11343E010900340189003400490034010800B4049
S11343F018800B4004800B404BC8073D9B55E53F9C
S11344000027002090230020008003400480034004
S11344104C800340088003400C80034000C00440EB
S113442040F2FF7C0B0D4DD0634566D230B421EAD7
S1134430035141F4801103F2FD3C5FEA5C0C01D3AB
S113444000184941890041EA907180004FF44014FA
S11344500023E202D50AB1F5100107D46D081DD27C
S1134460091B641900184941491BF7D56D080AD284
S11344700919641B00184941491BEFD56D08F7D38E
S113448001E0520817D0C01861419B1AAC410018D2
S11344904941801AA941F4D452080AD0C01AA14152
S11344A09B186C4100184941801AA941E9D452086B
S11344B0F4D15B1C6C4161084FEA330001EB0C51F1
S11344C030BC704750EA0103FBD030B4B1FA81F339
S11344D011B9B0FA80F41B190B3BB3F120042FBFC0
S11344E000FA04F19940C3F1200420FA04F438BF1F
S11344F021439840D3F101039DE76345E1D011F5D1
S1134500801FDED850EA4101DBD0D94301F080B9E5
S1134510002201F083B9002201F0EABA012201F07D
S1134520E7BA00003B49086070475C2800DB5B2069
S1134530202190FBF1F1002903D0022929D014D3C2
S11345403AE00121202290FBF2F303FB120399408D
S1134550314A11600121202290FBF2F303FB120384
S113456011FA03F02D49086026E00121202290FB76
S1134570F2F303FB12039940294A1160012120221E
S113458090FBF2F303FB120311FA03F025490860D0
S113459012E00121202290FBF2F303FB1203994065
S11345A0214A11600121202290FBF2F303FB120344
S11345B011FA03F01D49086070475C2800DB5B209A
S11345C0202190FBF1F1002903D0022917D00BD34D
S11345D01FE00121202290FBF2F303FB120311FAE6
S11345E003F01349086014E00121202290FBF2F348
S11345F003FB120311FA03F00E49086009E00121DC
S1134600202290FBF2F303FB120311FA03F00A4990
S11346100860704708ED00E080E200E000E100E09F
S113462084E200E004E100E088E200E008E100E068
S113463080E100E084E100E088E100E05C2800DB48
S11346405B20102900DB0F2100F1604010F564406D
S1134650090101707047000080B500F07DF9DFF8B2
S11346600C1388421AD1DFF80803006850F04000A8
S1134670DFF8FC120860DFF8FC024FF400710160FF
S1134680DFF8F4024FF400710160DFF8F002192141
S11346900170DFF8EC028821017014E0B44800686E
S11346A050F08000B2490860DFF8D8024FF400717E
S11346B00160B5484FF400710160B44819210170DC
S11346C0B3488821017001BD10B50400080000F052
S11346D043F9A649884213D1E4B2532C06D1A84821
S11346E0007850F02000A64908701FE0E4B24F2C77
S11346F01CD1A348007810F0DF00A149087015E030
S1134700A449884212D1E4B2532C06D1A0480078BF
S113471050F020009E49087008E0E4B24F2C05D107
S11347209B48007810F0DF009949087010BD10B55F
S11347300400080000F010F940F6F611002200E031
S1134740521C92B289B28A4213D2E4B2412C04D1EF
S1134750C378DB07F4D4002011E0E4B2542CEFD189
S1134760C3789B07ECD5C17851F00201C1700020D9
S113477005E092B289B28A4201D30120FFE710BD5D
S11347802DE9F04104000D0090461E00200000F0C9
S1134790E3F80700B87850F01000B87021005320F7
S11347A0FFF792FF15F0FE00387121005420FFF747
S11347B0BEFF002801D0012045E021004120FFF781
S11347C0B6FF002801D001203DE087F804802100D5
S11347D05420FFF7ACFF002801D0012033E0210072
S11347E04120FFF7A4FF002801D001202BE0B87876
S11347F050F00400B87055F00100387121005420C5
S1134800FFF795FF002801D001201CE02100412082
S1134810FFF78DFF002801D0012014E0B87810F0D4
S1134820EF00B8703879307021005420FFF77FFF13
S1134830002801D0012006E021004F20FFF744FFAB
S1134840387930700020BDE8F0812DE9F041040092
S11348500D0016001F00200000F07EF8804698F836
S1134860020050F0100088F8020021005320FFF7E6
S11348702BFF15F0FE0088F8040021005420FFF7F8
S113488056FF002801D0012030E021004120FFF72D
S11348904EFF002801D0012028E088F804602100A0
S11348A05420FFF744FF002801D001201EE021001E
S11348B04120FFF73CFF002801D0012016E088F8D2
S11348C0047021005420FFF732FF002801D001209A
S11348D00CE021004120FFF72AFF002801D001202D
S11348E004E021004F20FFF7EFFE0020BDE8F08137
S11348F02DE9F84305000E00170098465FF0000903
S1134900089C01E019F101092000C0B21FFA89F9DD
S113491080B2814516D2002000E0401C80B2B0F580
S1134920167FFAD31FFA89F919EB080319EB07026A
S1134930D2B23100C9B22800FFF722FF0028E1D02B
S1134940012007E0E4B21FFA89F9A4B2A14501D31A
S11349500020FFE7BDE8F283002802D0012802D03E
S113496003E0024801E00B48FFE77047006006409F
S11349703480044000A0044004A0044001600640C8
S11349800260064028B004402CB004400170064088
S1134990027006400070064030B4DFF8D43198420B
S11349A00AD1DFF8D0314FF440741C60DFF8C8310D
S11349B04FF440741C603FE0DFF8C03198420AD1E4
S11349C0DFF8BC314FF440741C60DFF8B8314FF4A9
S11349D040741C6030E0DFF8B031984209D1DFF850
S11349E0AC314FF440741C60694B4FF440741C604C
S11349F022E0684B984208D1674B4FF440741C6026
S1134A00664B4FF440741C6016E0654B984208D125
S1134A10644B4FF440741C60634B4FF440741C604F
S1134A200AE0624B984207D1614B4FF440741C601A
S1134A30604B4FF440741C604D4B984206D15E4B62
S1134A401B6853F480635C4C23602DE04B4B98420D
S1134A5006D1594B1B6853F40063574C236023E081
S1134A60494B984206D1544B1B6853F48053524C23
S1134A70236019E0474B984206D14F4B1B6853F40F
S1134A8000534D4C23600FE0454B984206D14B4BED
S1134A901B6853F48063494C236005E0474B1B6853
S1134AA053F40063454C2360C37813F0F303C370DD
S1134AB0002383702E4B984201D1012300E0002390
S1134AC02E4CA04201D1012400E00024DBB2E4B268
S1134AD02343002B00D049184FF47A7303FB01F3EE
S1134AE01401B3FBF4F3047814F0E0049BB21D0A40
S1134AF015F01F052C43047043704FF4FA446143CE
S1134B001201B1FBF2F19BB2B1EB4311827A12F0C4
S1134B10E00411F01F0121438172C17851F00C01AE
S1134B20C17030BC7047002200E0521C4FF6BB330A
S1134B309A4206D203799B06F7D5C0790870012002
S1134B4006E04FF6BB30824201D3002000E0002093
S1134B50704702791206FCD5C171704780B5C278DE
S1134B6052F02002C270C9B20800FFF7DEFC01BD9A
S1134B7000A0064018C004401CC0044000B0064019
S1134B8010B004400CB0044000C006400CC0044007
S1134B9008C0044000D0064044B0044040B0044083
S1134BA000A00E4060D0044064D0044000B00E4029
S1134BB020D0044024D004403480044028800440A1
S1134BC03D4A126852F400023B4B1A603B4A126899
S1134BD032F00202394B1A60384A126852F001026C
S1134BE0364B1A60C0B20201354BD150C0B23449C1
S1134BF011EB0011896851F00101C0B2304A12EB87
S1134C0000129160C0B22E4911EB0011896831F095
S1134C100201C0B22A4A12EB00108160704780B5CD
S1134C20C0B2274911EB0011896851F00201C0B2EA
S1134C30234A12EB00129160C0B2002805D002286A
S1134C400BD006D303280CD00EE04420FFF76DFCF4
S1134C500AE04520FFF769FC06E04620FFF765FC03
S1134C6002E04720FFF761FC01BD80B5C0B21449E2
S1134C7011EB0011896831F00201C0B2104A12EB45
S1134C8000129160C0B2002805D002280BD006D3D0
S1134C9003280CD00EE04420FFF78FFC0AE04520E7
S1134CA0FFF78BFC06E04620FFF787FC02E0472075
S1134CB0FFF783FC01BD00003C800440007003400A
S1134CC00071034080B50123012203210420FCF775
S1134CD05DFE0123012201210420FCF757FE01237C
S1134CE0002203210320FCF751FE012301220221AB
S1134CF00320FCF74BFE01BD80B5012201210420F5
S1134D00FCF77DFE002202210320FCF778FE01BDA2
S1134D1080B5012202210320FCF771FE01BD0000D1
S1134D2070B50400C9B2002901D154F08004FFF722
S1134D30E3FF8026002512E0002203210420FCF773
S1134D405EFE00BF00BF00BF012201210420FCF76A
S1134D5056FEF6B2760800BF00BF00BF6D1CEDB270
S1134D60082D0ED2002201210420FCF748FE200069
S1134D70C0B23042E0D0012203210420FCF73FFE00
S1134D80DFE770BD70B504008026002512E0002224
S1134D9003210420FCF733FE00BF00BF00BF012243
S1134DA001210420FCF72BFEF6B2760800BF00BFF9
S1134DB000BF6D1CEDB2082D0ED20022012104208B
S1134DC0FCF71DFE2000C0B23042E0D001220321D6
S1134DD00420FCF714FEDFE73F48FDF723FEFFF74E
S1134DE097FF70BD38B5002418E00022012104208B
S1134DF0FCF705FE6D0000BF00BF00BF01220121CA
S1134E000420FCF7FCFD03210320FCF70DFE002821
S1134E1000D06D1C00BF00BF00BF641CE4B2082CAE
S1134E20E3D3FFF775FF2800C0B232BD80B501227D
S1134E3011210020FCF7E3FD5FF07E50FDF7F2FD49
S1134E40002211210020FCF7DAFD01BD80B501210B
S1134E50C0B2FFF765FF2148FDF7E4FDFFF7C2FF8D
S1134E60C0B202BD10B50C000021C0B2FFF758FF5C
S1134E701A48FDF7D7FD2000C0B2FFF783FF10BD2D
S1134E8070B583211320FFF7EDFF5FF08040FDF73D
S1134E90C9FD002418E02DB21E20114914FB001690
S1134EA01320FFF7D3FFA8552DB21E200C4914FB85
S1134EB00010285C8100C9B20A48FFF74AFE6D1C45
S1134EC02DB21E2DE7DB641C24B21E2C01DA002552
S1134ED0F6E7FFF7ABFF70BD8FC2753D0AD7A33D60
S1134EE0D405FF1F00A0064038B50024002500208B
S1134EF0FFF7ACFF0400E4B2172C14D10A20FFF72B
S1134F00A5FF050055F010052900C9B20A20FFF7D6
S1134F10A9FF5FF07E50FDF785FD00211220FFF709
S1134F20A1FF012000E0002032BD000070B4C9B22E
S1134F30202901D3002086E0604CA0421AD1604CA5
S1134F40604D2D6855F400755E4E3560C9B24FF45E
S1134F50807540F82150D2B2012A3DD16069012206
S1134F608A4010436061DBB2012B31D101208840BB
S1134F70606067E0544CA04207D1544C514D2D68F9
S1134F8055F480654F4E3560E0E7514CA04207D19F
S1134F90504C4C4D2D6855F400654A4E3560D5E7AC
S1134FA04D4CA04207D14D4C464D2D6855F48055CB
S1134FB0444E3560CAE74A4CA04207D1494C414DA2
S1134FC02D6855F400553F4E3560BFE700203AE0A8
S1134FD001208840A06035E0626901258D40AA4324
S1134FE06261039AD2B20D2A01D300202BE0C9B228
S1134FF050F82140D2B2120412F470222243C9B2F2
S113500040F82120DBB2012B08D1C9B250F821208D
S113501052F00302C9B240F8212013E0DBB2022BA4
S113502008D1C9B250F8212052F00202C9B240F8A6
S1135030212007E0C9B250F8212032F00202C9B29F
S113504040F82120012070BC70471C4A904203D1D3
S11350502548016001201CE01B4A904203D12248EC
S11350604160012015E01A4A904203D11E48816034
S113507001200EE0184A904203D11B48C160012070
S113508007E0174A904203D117480161012000E06C
S11350900020704710B515480078B0F16704E4B2F9
S11350A0114850F824008047114850FA84F0000356
S11350B05FF0FF31C0F8A01010BD00000090044064
S11350C000F00F403880044000A0044040F00F403E
S11350D000B0044080F00F4000C00440C0F00F4016
S11350E000D0044000F10F407005FF1F04ED00E004
S11350F04900040070B50B00DFF8D0134968DFF8ED
S1135100CC432160DFF8C413DFF8C043A4684C60CB
S1135110DFF8B813DFF8B443E4688C60DFF8AC134D
S1135120DFF8A8432469CC60DFF8A013DFF89C43C0
S113513064690C61DFF89413DFF89043A4694C614F
S1135140DFF888138A61DBB25A08002408E0E4B26D
S113515050F82410E4B2DFF8785345F82410641CA6
S1135160E4B2DBB29C42F2D3002426E0E4B2DFF8DE
S1135170600350F82400EDB2DFF8541351F8251001
S1135180FCF7C4FD13D2E4B2DFF8440350F8240062
S1135190E4B2DFF83C13EDB2DFF8346356F825606F
S11351A041F82460EDB2DFF8281341F825006D1CA6
S11351B0EDB2DBB29D42D9D3641CD2B2E4B2A242B6
S11351C001D3651CF4E7D2B2DFF8040350F82200DF
S11351D070BD80B500208DF8000000A9DFF8F4024E
S11351E0FFF7A1FCDFF8F0020078002840D000208F
S11351F0DFF8E8120870C0B2002803D0B7480121D4
S1135200017035E09DF800004A2801D1012000E03A
S11352100020B2490870C0B2002803D0AF48022170
S1135220017025E09DF80000062801D1012000E06E
S11352300020AA490870C0B2002803D0A74803215F
S1135240017015E09DF80000BB2801D1012000E0A9
S11352500020A2490870C0B2002806D09F4800214F
S113526001709F480121017002E09C4800210170F7
S11352709DF80000EE2801D1FFF702FE01BD80B5C4
S113528000A99848FFF74FFC97489DF8001001705B
S11352909DF800006138C0B21F284CD293480078B2
S11352A0934909780843C0B2002840F0B880914877
S11352B0007891490978084200F0B1809DF8000017
S11352C0672834D069282ED06B2828D06C281ED0AB
S11352D06D2818D06E281ED06F2810D0702840F08A
S11352E09E807D48012101704FF47A734FF47A72E5
S11352F04FF47A714FF47A70FEF7D3FE8FE07F4853
S1135300012101708BE07E480121017087E07D4816
S11353100121017083E07C486E2101707FE07B48AD
S1135320012101707BE07A480121017077E078481F
S11353300021017073E0002005E0764941184978A6
S1135340744A8154401C0328F7DB72489DF800100E
S1135350C17070480078FF2861D16E484078602899
S113536003D36C486B49497841706A488078602857
S113537003D368486749897881706648C078FD28F6
S113538008D1644840786449086062488078634979
S1135390086039E05F48C078FC280DD15D4840784A
S11353A05D4908605C485C490968494201605948A4
S11353B080785A49086027E05648C078FB280DD108
S11353C054484078544908605248807853490860EA
S11353D05248524909684942016015E04D48C07875
S11353E0FA2811D14B4840784B49086049488078E5
S11353F04A490860484848490968494201604748A1
S11354004649096849420160002003E041490022FD
S11354104254401C0428F9DB41480121017001BDBC
S113542080B54048006850F001003E4908603E489D
S1135430012101703D480068401C3C4908603B481C
S11354400068B0F57A7F07D8FDF776FDFEF70AF815
S1135450FDF76BFBFEF703FA01BD10B50024002035
S11354600021334A12681400324A1278521C314B1C
S11354701A70304A1278012A02D12F48046023E0BE
S11354802C48007802281FD103210120FCF7D7FA09
S113549028480021017029480460274800682749EA
S11354A00968401A4FF47A71484325490968B0FBEA
S11354B0F1F13A20B1FBF0F080B2FA2804D221498C
S11354C001220A702049088010BD0000A82600208F
S11354D0C426002000A00640142700201B2700201B
S11354E01727002000B006401C2700201D2700209D
S11354F01E270020AD04FF1FAE04FF1F122700204B
S11355001327002015270020AC04FF1F18270020B4
S113551010270020EC260020E4260020E8260020A6
S1135520192700200C71034011270020A426002015
S1135530147103401A270020F0260020F4260020CE
S113554000270020162700200427002010B504009F
S1135550DFF88C00DFF88C1009680160DFF8880040
S11355600168DFF888000068FCF7D6FEDFF88010D9
S11355700860DFF87C000168DFF878000068FCF759
S1135580CBFE0100DFF868000068FCF747FEDFF897
S1135590681008602000DFF848100968FCF79AFAE0
S11355A0DFF854100968FCF745FBDFF8341009688C
S11355B0FCF7B2FEDFF82C1008605FF07E50DFF8D5
S11355C038100968FCF786FADFF824100968FCF73C
S11355D031FBDFF814100860DFF80800006810BD24
S11355E06005FF1F6405FF1F1004FF1F1404FF1F45
S11355F06805FF1F1804FF1F6C05FF1F4FF4001CF4
S11356001CEB410F94BF1CEB430F09E041EA030C70
S113561050EA4C0C52EA0C0C03D2994208BF904257
S1135620704714BF8B4282427047000000000000A4
S11356302DE9F04D04460D4617464F4A4F4BFCF7F3
S1135640E9FF1CD84E4EDFF83C8132464346FCF756
S11356500BFC00224C4BFCF793FB82468B463246F4
S1135660434620462946FCF78BFB02460B46504630
S11356705946FCF7ABFE04460D4647F001072046A9
S113568029460022414BFFF7B9FF05D301224FF011
S11356907953FCF7BFFF53D822462B46FCF7E4FBB3
S11356A0064688463246434620462946FCF7DCFB3C
S11356B082468B463648374932464346FCF7D4FB8C
S11356C0354A364BFCF75CFB32464346FCF7CCFBD1
S11356D0334A344BFCF754FB52465B46FCF7C4FB9D
S11356E022462B46FCF74CFB04460D462E482F4918
S11356F032464346FCF7B8FB2D4A2E4BFCF740FBE1
S113570032464346FCF7B0FB2B4A2C4BFCF738FBE4
S113571032464346FCF7A8FB294A2A4BFCF730FBE8
S113572032464346FCF7A0FB0022274BFCF728FB3C
S113573002460B4620462946FCF748FE04460D4621
S1135740B80748BF85F0004517F007000BD00FF2EB
S1135750800101EBC002D2E9000122462B46FCF78E
S11357600FFB04460D46380747BF85F0004120462D
S113577020462946BDE8F08D57CD9E5E1426D13FC4
S1135780AA4C58E87AB6FB3F0000F0BF000040BEC8
S1135790845D57134B57B03FB2934C19ED5EE43F11
S11357A0BEDE02B90240F83FDE39028FC7C0743F43
S11357B08AAB1283000CC83F24D7E508B6D8F03F63
S11357C00F34580E5895FD3F0000F03F00000000D4
S11357D0000000000000000066732D3852C1E03F55
S11357E0182D4454FB21F93F66732D3852C1F03F04
S11357F0182D4454FB21F93F66732D3852C10040E3
S1135800182D4454FB2109403FD038C6A6F104406A
S11358101FB500F083FB212101601FBD2DE9F64D6A
S113582003B484B0C1F30A5040F2FF7290420AD12B
S11358300027080304BF0498002801D1002917D4C5
S1135840DDE904010EE101280BDA04A800F06CFB89
S1135850012806DB00F062FB22210160002083495D
S113586000E140F2FE31059A61F31E520592471A97
S11358700598002808D500F051FB212101604FF064
S1135880FF306FF00041EDE0DDE90401784A794B27
S1135890FFF7B4FE09D2DDE9042300204FF0804174
S11358A0FCF7E2FACDE904017F1EDDE904230020C0
S11358B07149FCF765FA04460D46DDE9042300202E
S11358C06E49FCF75DFA02460B4620462946FCF772
S11358D07DFD0646884632464346FCF7C5FA8246B5
S11358E08B466748674952465B46FCF7BDFA664AF1
S11358F0664BFCF745FA52465B46FCF7B5FA644A38
S1135900644BFCF73DFA52465B46FCF7ADFA624A3B
S1135910624BFCF735FA52465B46FCF7A5FA604A3F
S1135920604BFCF72DFA52465B46FCF79DFA5E4A43
S11359305E4BFCF725FA52465B46FCF795FA5C4A47
S11359405C4BFCF71DFA52465B46FCF78DFA0246A7
S11359500B4620462946FCF759FB32464346FCF7E2
S113596083FA0646884638B2FCF718FD07468B468C
S11359700798C8B9504851493A465B46FCF774FA4F
S113598032464346FCF742FB22462B46FCF7F8F925
S113599004460D464FF0404049493A465B46FCF701
S11359A063FA22462B465BE0012836DB002045499A
S11359B022462B46FCF758FACDE9020142484349F6
S11359C022462B46FCF750FACDE9000140484149F4
S11359D03A465B46FCF748FA04460D4630464146D3
S11359E03D4A384BFCF740FA02460B46204629460E
S11359F0FCF70CFBDDE90023FCF7C2F9DDE9022327
S1135A00FCF7BEF904460D46002034493A465B468D
S1135A10FCF72AFA22462B4622E04FF0C0403049D8
S1135A2022462B46FCF720FACDE900012D482E49E9
S1135A3022462B46FCF718FA04460D462B48284903
S1135A4032464346FCF710FA02460B4620462946E6
S1135A50FCF7DCFADDE90023FCF792F93A465B46F1
S1135A60FCF78EF908B0BDE8F08D00000000F0FFEF
S1135A70CD3B7F669EA0E63F0000F0BF0000F03FF4
S1135A80F7DE29BFD8F8C23FF4B3FECC1A99C33F5E
S1135A9062CB68D96F46C73FC6C912DAC471CC3F1E
S1135AA04AE98A942449D23FF75F97999999D93F53
S1135AB0BC5555555555E53F9EBC9AF71C7D7F3E18
S1135AC0422EE63F7BCBDB3FABA6320EE526553EAE
S1135AD07CC4BC7FDE27743E0EE526151344D33FF9
S1135AE04715F73F44DF5DF80BAE543EFE822B654D
S1135AF02DE9F04C83B004460D461646DFF87C03CE
S1135B00DFF87C1322462B46FCF7AEF907468B469A
S1135B1021F00041DFF86C23DFF86C33FFF76EFDF2
S1135B2080F0F380594600220023FCF773FD1046F1
S1135B3094BFDFF85813DFF858133A465B46FCF776
S1135B401FF9FCF749FF070051D0FCF727FC00229E
S1135B50D04BFCF789F982468B464FF0A040CE49E2
S1135B6052465B46FCF780F902460B46204629461E
S1135B70FCF74CFA04460D464FF0C040C749524664
S1135B805B46FCF771F902460B4620462946FCF7B2
S1135B903DFA04460D464FF00050C14952465B465B
S1135BA0FCF762F902460B4620462946FCF72EFA1A
S1135BB004460D460020BB4952465B46FCF754F9A7
S1135BC002460B4620462946FCF720FA04460D46B9
S1135BD04FF00050B44952465B46FCF745F9024683
S1135BE00B4620462946FCF711FA04460D4607F0F9
S1135BF003008619204629466FF00102AB4BFCF7DF
S1135C0009FD0BD800224FF07953FFF7F7FC05D2BA
S1135C10F00740F12D810024A54D29E122462B46B1
S1135C20FCF722F907468B46F00731D5A148A24973
S1135C303A465B46FCF718F9A04AA14BFCF7A0F8DA
S1135C403A465B46FCF710F99E4A9F4BFCF798F8DE
S1135C503A465B46FCF708F99C4A9D4BFCF790F8E2
S1135C603A465B46FCF700F99A4A9B4BFCF788F8E6
S1135C703A465B46FCF7F8F86FF05102974BFCF795
S1135C807FF83A465B46FCF7EFF80022884B37E092
S1135C903A465B4620462946FCF7E6F8CDE9000182
S1135CA08F4890493A465B46FCF7DEF88E4A8F4BA4
S1135CB0FCF766F83A465B46FCF7D6F88C4A8D4BFF
S1135CC0FCF75EF83A465B46FCF7CEF88A4A8B4B03
S1135CD0FCF756F83A465B46FCF7C6F8884A894B07
S1135CE0FCF74EF83A465B46FCF7BEF8864A874B0B
S1135CF0FCF746F8DDE90023FCF7B6F822462B460C
S1135D00FCF73EF804460D46B2E0C5F30A5240F2F1
S1135D10FF77BA420DD0002A04BF290354EA113098
S1135D2015D1F00744BF0024614DB00740F1F08065
S1135D30A0E0290354EA113040F0EA8000F0EEF8C4
S1135D40212101604FF0FF306FF00041E2E0CDE926
S1135D50004500A800F00AF98619DDE9004520464F
S1135D6029466FF00102514BFCF754FC0AD800227B
S1135D704FF07953FFF742FC04D2F00778D50024A2
S1135D804B4D75E022462B46FCF76EF807468B46D2
S1135D90F00731D5474848493A465B46FCF764F872
S1135DA0464A474BFBF7ECFF3A465B46FCF75CF888
S1135DB0444A454BFBF7E4FF3A465B46FCF754F88C
S1135DC0424A434BFBF7DCFF3A465B46FCF74CF890
S1135DD0404A414BFBF7D4FF3A465B46FCF744F894
S1135DE06FF051023D4BFBF7CBFF3A465B46FCF7A5
S1135DF03BF800222E4B37E03A465B4620462946C4
S1135E00FCF732F8CDE90001354836493A465B469D
S1135E10FCF72AF8344A354BFBF7B2FF3A465B46A7
S1135E20FCF722F8324A334BFBF7AAFF3A465B46AB
S1135E30FCF71AF8304A314BFBF7A2FF3A465B46AF
S1135E40FCF712F82E4A2F4BFBF79AFF3A465B46B3
S1135E50FCF70AF82C4A2D4BFBF792FFDDE90023EF
S1135E60FCF702F822462B46FBF78AFF04460D4650
S1135E70B0074DD585F0004120464BE083C8C96D7D
S1135E80305FE43F0000A0FFFFFFDF410000E03F80
S1135E900000E0BF0000303EFB21B941B4101140C6
S1135EA026A6513E5C14D33C9A833B3BFFFF3FBE86
S1135EB00000F03F09260A1039BA213E3BA861C60A
S1135EC0F97D92BE63AC30909F01FA3EF6FB511609
S1135ED06CC156BFB10255555555A53FFFFFDFBFF5
S1135EE0B08F2FC310D8E53D8F0C73A1E1E55ABEE6
S1135EF04DADE44FE31DC73E3EE3B519A0012ABFF3
