S01100006D7970726F6A6563742E7372656336
S3151FFF0000F8FF00201104FF1F3710FF1F3710FF1FB8
S3151FFF00103710FF1F3710FF1F3710FF1F3710FF1F28
S3151FFF00203710FF1F3710FF1F3710FF1F3710FF1F18
S3151FFF00303710FF1F3710FF1F3710FF1F3710FF1F08
S3151FFF00403710FF1F3710FF1F3710FF1F3710FF1FF8
S3151FFF00503710FF1F3710FF1F3710FF1F3710FF1FE8
S3151FFF00603710FF1F3710FF1F3710FF1F3710FF1FD8
S3151FFF00703710FF1F3710FF1F3710FF1F3710FF1FC8
S3151FFF00803710FF1F3710FF1F3710FF1F3710FF1FB8
S3151FFF00903710FF1F3710FF1F3710FF1F3710FF1FA8
S3151FFF00A03710FF1F3710FF1F3710FF1F3710FF1F98
S3151FFF00B03710FF1F3710FF1F3710FF1F3710FF1F88
S3151FFF00C03710FF1F3710FF1F3710FF1F3710FF1F78
S3151FFF00D03710FF1F3710FF1F3710FF1F3710FF1F68
S3151FFF00E03710FF1F3710FF1F3710FF1F3710FF1F58
S3151FFF00F03710FF1F252AFF1F3710FF1F752AFF1FE8
S3151FFF01003710FF1F3710FF1F3710FF1FB12AFF1FA3
S3151FFF01103710FF1F3710FF1F3710FF1F3710FF1F27
S3151FFF01203710FF1F3710FF1F3710FF1F3710FF1F17
S3151FFF01303710FF1F3710FF1F3710FF1F3710FF1F07
S3151FFF01403710FF1F3710FF1F3710FF1F3710FF1FF7
S3151FFF0150D12AFF1F3710FF1F3710FF1F3710FF1F33
S3151FFF01603710FF1F3710FF1F3710FF1F3710FF1FD7
S3151FFF01703710FF1F3710FF1F3710FF1F3710FF1FC7
S3151FFF01803710FF1F3710FF1F3710FF1F3710FF1FB7
S3151FFF01903710FF1F3710FF1F3710FF1F3710FF1FA7
S3151FFF0400FFFFFFFFFFFFFFFFFFFFFFFFFEFFFFFFD9
S3151FFF04104FF000004FF000014FF000024FF00003B6
S3151FFF04204FF000044FF000054FF000064FF0000796
S3151FFF04304FF000084FF000094FF0000A4FF0000B76
S3151FFF04404FF0000C62B602F007FCFEE7F0B50400A2
S3151FFF04505FF07F575FF07C50210000F009FB06001D
S3151FFF04602500DFF89005B0EB65053000290000F089
S3151FFF0470FFFA290000F0FCFA0100380000F064FBC8
S3151FFF0480290000F0F5FA05003000290000F0F0FA08
S3151FFF0490290000F0EDFA0100380000F055FB290096
S3151FFF04A000F0E6FA05002000290000F0E1FAF0BD92
S3151FFF04B010B5040045F6C05000F0D2FB210000F036
S3151FFF04C0D7FA00F0DBFB00E0401E0028FCD110BD71
S3151FFF04D080B50F232022D221002000F0DCFC00284C
S3151FFF04E0F7D100232122D221002000F0D4FC0028BF
S3151FFF04F0F7D108232222D221002000F0CCFC0028AE
S3151FFF0500F7D100232322D221002000F0C4FC0028AC
S3151FFF0510F7D100232422D221002000F0BCFC0028A3
S3151FFF0520F7D101BD38B506200090DFF8CC3428225D
S3151FFF0530D221002000F002FD0028F4D1DFF8B80415
S3151FFF05404078DFF8B414097851EA0020DFF8AC14BD
S3151FFF05500880DFF8A404C078DFF89C14897851EA75
S3151FFF05600020DFF89C140880DFF88C044079DFF841
S3151FFF05708814097951EA0020DFF888140880DFF80C
S3151FFF05807C04B0F9000000F061FB00F02DFD002296
S3151FFF0590DFF8743400F050FD0022DFF8703400F0EE
S3151FFF05A01DFE04000D00DFF868040068DFF8641401
S3151FFF05B000F038FFDFF8601400F05AFA00F014FD60
S3151FFF05C002000B002000290000F0AAFF01F068F8C7
S3151FFF05D0DFF848140860DFF82804B0F9000000F0C0
S3151FFF05E035FB00F001FD0022DFF81C3400F024FD6F
S3151FFF05F00022DFF8183400F0F1FD04000D00DFF8CC
S3151FFF060020040068DFF80C1400F00CFFDFF8081455
S3151FFF061000F02EFA00F0E8FC02000B002000290074
S3151FFF062000F07EFF01F03CF8DFF8F8130860DFF8F3
S3151FFF0630D403B0F9000000F009FB00F0D5FC00223F
S3151FFF0640DFF8C43300F0F8FC0022DFF8C03300F0F8
S3151FFF0650C5FD04000D00DFF8D0030068DFF8B413F3
S3151FFF066000F0E0FEDFF8B01300F002FA00F0BCFC6A
S3151FFF067002000B002000290000F052FF01F010F8C6
S3151FFF0680DFF8A8130860DFF894030068DFF8841308
S3151FFF069000F0EEF9DFF8801300F0C4FEDFF89013C9
S3151FFF06A0096801F045F8DFF888130860DFF874035F
S3151FFF06B00068DFF8601300F0DBF9DFF85C1300F06A
S3151FFF06C0B1FEDFF87013096801F032F8DFF8641323
S3151FFF06D00860DFF858030068DFF8381300F0C8F921
S3151FFF06E0DFF8341300F09EFEDFF84C13096801F0A4
S3151FFF06F01FF8DFF844130860DFF8400300684FF464
S3151FFF07007A7188421DD1CA480068C34900F08AFE24
S3151FFF0710BF490860C7480068BF4900F083FEC0494C
S3151FFF07200860C5480068BC4900F07CFEBE490860EA
S3151FFF0730BF4800210160BF4800210160BE4800215C
S3151FFF0740016031BD80B50B233122A621002000F0A9
S3151FFF0750A2FB0028F7D108232C22A621002000F098
S3151FFF07609AFB0028F7D108232D22A621002000F08F
S3151FFF077092FB0028F7D180232E22A621002000F00E
S3151FFF07808AFB0028F7D1FB231E22A621002000F09B
S3151FFF079082FB0028F7D100231F22A621002000F08D
S3151FFF07A07AFB0028F7D105232022A621002000F07F
S3151FFF07B072FB0028F7D101BD2DE9F8430024002560
S3151FFF07C00026062000908C4B3222A621002000F027
S3151FFF07D0B5FB0028F5D1884840780002864909787D
S3151FFF07E050FA81F0964908808348C07800028249F3
S3151FFF07F0897850FA81F0934908807F484079000233
S3151FFF08007D49097950FA81F08F4908808C48B0F9E4
S3151FFF0810000000F01BFA00F0E7FB5FF033328B4B53
S3151FFF082000F00AFC00F03CFF04008648B0F9000008
S3151FFF083000F00CFA00F0D8FB5FF03332834B00F069
S3151FFF0840FBFB00F02DFF05007F48B0F9000000F00D
S3151FFF0850FDF990F0004000F0C7FB5FF033327B4B92
S3151FFF086000F0EAFB00F01CFF06002800290000F03D
S3151FFF0870FFF807003000310000F0FAF801003800DA
S3151FFF088000F056FFFFF7E2FD00F0AEFB02000B0084
S3151FFF089090469946200000F0A7FB42464B4600F0C4
S3151FFF08A089FF5FF066326A4B00F0C6FB80468946BA
S3151FFF08B06848006800F098FB02000B004046494657
S3151FFF08C000F02EFE00F0ECFE6349086020002100B9
S3151FFF08D000F0CEF807003000310000F0C9F8010024
S3151FFF08E0380000F025FFFFF7B1FD00F07DFB02008A
S3151FFF08F00B0090469946280000F076FB42464B4672
S3151FFF090000F058FF5FF06632514B00F095FB8046B3
S3151FFF091089465248006800F067FB02000B004046FD
S3151FFF0920494600F0FDFD00F0BBFE4D490860210062
S3151FFF0930200000F09DF804002900280000F098F819
S3151FFF09400100200000F0F4FEFFF780FD040045487C
S3151FFF0950006800F049FB80468946200000F044FBF3
S3151FFF096002000B0014001D00300000F03DFB2200AB
S3151FFF09702B0000F01FFF5FF06632354B00F05CFB6C
S3151FFF09800022394B00F07EFF02000B00404649460E
S3151FFF099000F0C6FD00F084FE344908602748006852
S3151FFF09A04FF47A71884222D12B4800681A4900F00A
S3151FFF09B039FD284908602A480068174900F032FDAB
S3151FFF09C02649086029480068134900F02BFD254971
S3151FFF09D0086021480021016021480021016020484D
S3151FFF09E00021016000220F21002000F0F8FFBDE863
S3151FFF09F0F1830000DF59375FD82FFF1F4230FF1FDC
S3151FFF0A004430FF1F4630FF1F0080214000408F40AC
S3151FFF0A100430FF1F0000A04100007A44EC2FFF1F88
S3151FFF0A200830FF1FF02FFF1F0C30FF1FF42FFF1F74
S3151FFF0A30F82FFF1FFC2FFF1F0030FF1F1C30FF1F4C
S3151FFF0A403C30FF1F3E30FF1F4030FF1F33330F4029
S3151FFF0A5066A64C401030FF1FE02FFF1F1430FF1FED
S3151FFF0A60E42FFF1F1830FF1F00805640E82FFF1F80
S3151FFF0A70FF2212EAD05C1DBF12EAD153944593425F
S3151FFF0A802BE09C44D30780EA01021A4043EA002069
S3151FFF0A9043EA0121A1FB0030410038BF40007CF132
S3151FFF0AA07F010BDBFE294ADA5B0842EAC15153EA93
S3151FFF0AB0006373F1004C51EB10207047D1F1080C06
S3151FFF0AC0DCF120012FDB5B0810FA01F10B4373F1F9
S3151FFF0AD0004120FA0CF05041704794451CBF02EAB3
S3151FFF0AE0D153934280EA010202F000421DD040001B
S3151FFF0AF019D0490017D05BB9634514D00902B1FA63
S3151FFF0B0081F39940BCEB030CC00140F00040C1E7E5
S3151FFF0B100002B0FA80FC10FA0CF0B3EB0C0CC90103
S3151FFF0B2041F00041B6E71000704740000AD0490068
S3151FFF0B3008D010F1807F94BF11F1807F02E042F051
S3151FFF0B40FF407047D043704790EA010F44BF81F0C3
S3151FFF0B50004100F0F4BD431A4FF000423EBF534021
S3151FFF0B60C01AC918D3095FEAD05C13EB400F34BF15
S3151FFF0B70B3EB410F40E07CEBD1530CD342EA01218B
S3151FFF0B8022D8D1EB402009D3400A28BF5FEA500184
S3151FFF0B9040EBCC507047401A15D04002B0FA80F296
S3151FFF0BA0521C9040400A4FEA3C23B3EB026384BFBB
S3151FFF0BB000EB730007E040F400001A16DB07C2F1D3
S3151FFF0BC00102D04018437047182BFCDC31FA03F2A1
S3151FFF0BD002FA03F3591A38BF42F00102D2EB402043
S3151FFF0BE03CBF4000ACF1010C5FEACC5CC20572F161
S3151FFF0BF000414CEB5020704713EB400F0FD24B00B9
S3151FFF0C0009D0ACEBD153022B03DB4902172BDDDDDA
S3151FFF0C1070479143401A4300D5D10020704713EB0D
S3151FFF0C20410FD0D36FF00000704750F8041B61B11E
S3151FFF0C3050F8042BD30744BFA9F101039A180023C9
S3151FFF0C4042F8043B091FFAD1EFE77047002840F12E
S3151FFF0C500880F446404200F004F850F00040604719
S3151FFF0C6000280AD0B0FA80F18840D1F19D01C9054D
S3151FFF0C70020672F1004241EB1020704740000DD271
S3151FFF0C80010E7F390AD4D1F11F0104D4C00140F0F0
S3151FFF0C900040C84070477FF0000070470020704734
S3151FFF0CA080B500F080F9DFF8141388421AD1DFF8F8
S3151FFF0CB01003006850F04000DFF804130860DFF8E8
S3151FFF0CC004034FF400710160DFF8FC024FF400715B
S3151FFF0CD00160DFF8F80265210170DFF8F402882151
S3151FFF0CE0017016E0DFF8D802006850F08000B449A3
S3151FFF0CF00860DFF8E0024FF400710160DFF8D802E9
S3151FFF0D004FF400710160B54865210170B448882111
S3151FFF0D10017001BD10B50400080000F044F9A74992
S3151FFF0D20884213D1E4B2532C06D1A948007850F05C
S3151FFF0D302000A74908701FE0E4B24F2C1CD1A4481E
S3151FFF0D40007810F0DF00A249087015E0A549884218
S3151FFF0D5012D1E4B2532C06D1A148007850F02000DF
S3151FFF0D609F49087008E0E4B24F2C05D19C480078D4
S3151FFF0D7010F0DF009A49087010BD10B50400080077
S3151FFF0D8000F011F940F6F611002200E0521C92B254
S3151FFF0D9089B28A4213D2E4B2412C04D1C378DB074E
S3151FFF0DA0F4D4002011E0E4B2542CEFD1C3789B0793
S3151FFF0DB0ECD5C17851F00201C170002005E092B257
S3151FFF0DC089B28A4201D30120FFE710BD2DE9F04109
S3151FFF0DD004000D0090461E00200000F0E4F80700F7
S3151FFF0DE0B87850F01000B87021005320FFF792FF1C
S3151FFF0DF015F0FE00387121005420FFF7BEFF0028B3
S3151FFF0E0001D0012045E021004120FFF7B6FF002852
S3151FFF0E1001D001203DE087F8048021005420FFF711
S3151FFF0E20ACFF002801D0012033E021004120FFF74E
S3151FFF0E30A4FF002801D001202BE0B87850F0040052
S3151FFF0E40B87055F00100387121005420FFF795FF48
S3151FFF0E50002801D001201CE021004120FFF78DFF54
S3151FFF0E60002801D0012014E0B87810F0EF00B87009
S3151FFF0E703879307021005420FFF77FFF002801D0FB
S3151FFF0E80012006E021004F20FFF744FF387930701D
S3151FFF0E900020BDE8F0812DE9F04104000D0016008A
S3151FFF0EA01F00200000F07FF8804698F8020050F0E0
S3151FFF0EB0100088F8020021005320FFF72BFF15F0C3
S3151FFF0EC0FE0088F8040021005420FFF756FF002874
S3151FFF0ED001D0012030E021004120FFF74EFF0028FF
S3151FFF0EE001D0012028E088F8046021005420FFF775
S3151FFF0EF044FF002801D001201EE021004120FFF7FB
S3151FFF0F003CFF002801D0012016E088F8047021005D
S3151FFF0F105420FFF732FF002801D001200CE02100EB
S3151FFF0F204120FFF72AFF002801D0012004E02100FE
S3151FFF0F304F20FFF7EFFE0020BDE8F0812DE9F843B4
S3151FFF0F4005000E0017009846089C5FF0000901E098
S3151FFF0F5019F101092000C0B21FFA89F980B2814534
S3151FFF0F6017D2002000E0401C4FF4167180B2884252
S3151FFF0F70F9D31FFA89F919EB080319EB0702D2B246
S3151FFF0F803100C9B22800FFF721FF0028E0D001205A
S3151FFF0F9007E0E4B21FFA89F9A4B2A14501D30020E5
S3151FFF0FA0FFE7BDE8F283002802D0012802D003E045
S3151FFF0FB0024801E00B48FFE770470000006006404C
S3151FFF0FC03480044000A0044004A004400160064092
S3151FFF0FD00260064028B004402CB004400170064052
S3151FFF0FE002700640007006405FF0FF0C1CEAD051EE
S3151FFF0FF014BF614506E0C110400721F0E04101F132
S3151FFF10006051704779B900F0004100020AD0B0FA6B
S3151FFF101080FC00FA0CF001F16051A1EB0C5101EBC2
S3151FFF1020D0214005704741020CBF40F4E0016FF02D
S3151FFF10300001002070477047B0B581EA030C0CF022
S3151FFF1040004C40F2FF7515EA11541DBF15EA1357E1
S3151FFF1050AC42AF4239E0E41923EA455343F4801308
S3151FFF1060C90241F0004141EA505EC7021100A7FBCA
S3151FFF1070020200284FF00000EEFB01204FF0000197
S3151FFF1080E3FB072118BF42F0010240180021494127
S3151FFF1090E3FB0E01A4F580640F0302D25200404109
S3151FFF10A0494154F101046CDD470872F1004250F1CA
S3151FFF10B0000051EB0451A1F580115CBF41EA0C0101
S3151FFF10C0B0BD4CEA05510020B0BD05EA1357AC422F
S3151FFF10D014BFAF4241E050EA410E1CBF52EA430E16
S3151FFF10E002E061460020B0BD24423C441BD15FEAAB
S3151FFF10F0070EF6D0090302BF01460020AEF1140EFC
S3151FFF1100B1FA81F7AEEB070401FA07FE0C37C7F1F9
S3151FFF1110200100FA07F7C8404EEA000E23EA45539F
S3151FFF112043F48013A2E733F00043B3FA83F704BFF8
S3151FFF1130B2FA82FE77440B3FE41BB7F1200E2FBF97
S3151FFF114002FA0EF3BB40C7F1200E22FA0EFE38BF7E
S3151FFF115043EA0E03BA40641C82E750EA410E14BFEE
S3151FFF116052EA430E6FF000014FF4001717EB430FC0
S3151FFF11708ABF194617EB410FB5E74CEA0551002009
S3151FFF1180B0BDD4F10104B4F120070FDAC4F1200773
S3151FFF1190520828BF42F0010210FA07F501FA07F7B6
S3151FFF11A0E1BF2A43E0403843E1400FE0352C98DC8E
S3151FFF11B0C7F1200452EA400220FA07F218BF42F095
S3151FFF11C0010231FA07F0A1400A43002172F10042E2
S3151FFF11D050F1000051EB0C01B0BD0000F0B540F21D
S3151FFF11E0FF7581EA030C0CF0004C15EA11541DBF65
S3151FFF11F015EA1357AC42AF42E5E0BC41C1F31301F9
S3151FFF1200C3F31303801A994143F4801304D2641E58
S3151FFF12104000494180185941C90241EA5051B1FB6B
S3151FFF1220F3F603FB1611A2FB0675D7EBC020A941E8
S3151FFF123002D2761E80185941C90241EA5051B1FBAD
S3151FFF1240F3FE03FB1E11A2FB0E75D7EBC020A941B0
S3151FFF125003D2AEF1010E80185941890241EA90511E
S3151FFF1260760546EA8E2EB1FBF3F603FB1611A2FB9C
S3151FFF12700675D7EB8020A94102D2761E80185941E9
S3151FFF1280C90241EA50514EEA060EB1FBF3F603FBC4
S3151FFF12901611A2FB0675D7EBC020A94102D2761EF7
S3151FFF12A080185941C90241EA5051B1FBF3F703FBBD
S3151FFF12B01711A2FB0735D3EBC020A94167F1000722
S3151FFF12C00CBF004247F0010766F3D5274FEA1E31D1
S3151FFF12D0B80814F5806412DDBD0775F1004250EBA7
S3151FFF12E00E5051EB045111F5801F5CBF41EA0C01F3
S3151FFF12F0F0BD4CF07F6141F0E0410020F0BDBD071E
S3151FFF13006D0840EA0E5041F48011D4F10104B4F187
S3151FFF131020060ADAC4F120060200E04001FA06F3AE
S3151FFF1320E1401843B24015430EE0342C13DCC6F1DF
S3151FFF1330200445EA40056D0820FA06F2154321FAF7
S3151FFF134006F0A1400D43002175F1004250F1000048
S3151FFF135051EB0C01F0BD00205FEA0C01F0BDCFB9C8
S3151FFF136092185B41B3FA83F704BFB2FA82F6BF192D
S3151FFF13700B3FB7F120062FBF02FA06F3BB40C7F19B
S3151FFF1380200622FA06F638BF3343BA401CB1E419CA
S3151FFF1390641E33E77F4231F00041B1FA81F404BF87
S3151FFF13A0B0FA80F6A4190B3CB4F120062FBF00FA42
S3151FFF13B006F1A140C4F1200620FA06F638BF3143D5
S3151FFF13C0A0403C1B1AE7AC421ABF05EA1357AF42B0
S3151FFF13D012E050EA41061CBF52EA4306BFE750EA36
S3151FFF13E04107304661461CBF41EA0551F0BD52EA2F
S3151FFF13F0430C08BFC143F0BD00204FF4001616EB88
S3151FFF1400410F98BF16EB430F08BF16EB410F24BFC3
S3151FFF1410C14305E016EB430F0CBF61464CEA05516E
S3151FFF1420F0BD000010B5FF2313EAD0541DBF13EA0A
S3151FFF1430D1529C429A4239E0A41ADA0780EA010385
S3151FFF1440134042EA012142EA0020421A3CBF641EB2
S3151FFF145001EB4202090AB2FBF1FE01FB1E22120239
S3151FFF1460B2FBF1F001FB10226EF30F201202B2FB4B
S3151FFF1470F1FE4EEA00207F3406DDFE2C24DA53EA06
S3151FFF1480500050EBC45010BDD4F1020401FB1E22C5
S3151FFF149040F08071192C1DDC21FA04F0C4F12004E1
S3151FFF14A0A140114371F10042584110BD9C421ABF22
S3151FFF14B003EAD1529A420FE080EA010E0EF0004373
S3151FFF14C0400004D0490016D143F0FF4010BD49002C
S3151FFF14D008BFD343180010BD9C4205D1D21AF7D0BF
S3151FFF14E001F00041484010BD4A0212BF084648405E
S3151FFF14F000F0004010BD4AB90902B1FA81F29140CE
S3151FFF150044B1A418C00140F000409EE7C90141F055
S3151FFF1510004152420002B0FA80F4A040141B94E728
S3151FFF152070B44FF0004591EA030F44BF6B4000F0C4
S3151FFF1530B2B9841A71EB030604D26E40001BB14188
S3151FFF1540121973414FF4001C1CEB410F34BF7CEB88
S3151FFF1550430684E00C0DA4EB1356362E7DDC012EBD
S3151FFF156043DC45EAC32343EA525312BFD202920218
S3151FFF15705B08240545EAC12141EA5051D2EBC02041
S3151FFF1580994125D407D1B0FA80F610FA06F164D037
S3151FFF15900020203608E0B1FA81F6B140C6F12002DD
S3151FFF15A020FA02F21143B0404FEAF474B4EB4654EB
S3151FFF15B034F001064FEA74040AD8D6F50016760DE5
S3151FFF15C004F00044F04061FA06F25040F1404840F3
S3151FFF15D0C00A40EA415021F0004128BF5FEA50058B
S3151FFF15E050F1000044EBD12137E045EAC323DB0A64
S3151FFF15F045EAC121C90AB6F120050EDD42EA0242BC
S3151FFF1600120CC5F1200603FA06F6EB4042EA060561
S3151FFF16106D42984161F100010DE062FA06F5F24055
S3151FFF1620554063FA06FC82EA0C02F3405A406D42AC
S3151FFF1630904161EB030111F4801F05D1641E620502
S3151FFF164002D06D004041494121F48011430875F1D5
S3151FFF1650004350F1000041EB045170BC70471CEB77
S3151FFF1660410F15D223F0004352EA43060BD04FEA30
S3151FFF16704C0CBCEB410F04D80C0D661E342EB7DD88
S3151FFF1680EBE7801A994150EA410608BF0021E4E7BC
S3151FFF169008BF1CEB430F28BF6FF00001DDE70000FB
S3151FFF16A04FEAF17CBCF1E04C2CBFBCF5001F11E0EB
S3151FFF16B05FEA4C0C34BFBCF17F5F2EE05FEA9C0CE8
S3151FFF16C04FEA0C1C4FEA3C0CC10071F100414CEB79
S3151FFF16D050707047C90241EA5051C00218BF41F00E
S3151FFF16E0010141F000414FEA6C50C0F1090021286A
S3151FFF16F010D240EACC7CCCF1200C11FA0CF070F121
S3151FFF17000040CCF1200C21FA0CF00CF0004C40EB02
S3151FFF17100C0070474FEACC707047490011F5001F48
S3151FFF172004D84FEACC10FF30C0057047C817704763
S3151FFF173090EA010F44BF81F00041FFF70CBA421A2E
S3151FFF17403CBF801A89184FF0004CC0F3C752FF2ABF
S3151FFF175024D0C1F3C75313B3D21AD2F1190327DD0E
S3151FFF17604CEA01214CFA03F321EA0303D140C20DD0
S3151FFF17704CEA0020401834BF20EA0C004CEA500008
S3151FFF1780D20553EA006373EB0C0C52EB1020420099
S3151FFF179012F1807F38BF7047C00DC00570474902E1
S3151FFF17A012BF9A4200EB5120F8E7D2F11703D9D5A2
S3151FFF17B07047000038B50FB4DDE9020100F070F97C
S3151FFF17C00546DDE9000100F06BF90246012D32DA0D
S3151FFF17D0012A30DA0198002807D5DDE9000181F0DB
S3151FFF17E00041CDE90001082400E0002403980028EA
S3151FFF17F007D5DDE9020181F00041CDE9020184F041
S3151FFF18000604DDE90201DDE9002300F065F906D2D2
S3151FFF1810DDE90201DDE90023FFF7E0FC27E0002DEC
S3151FFF182006D5DDE90001DDE90223FFF7D7FC21E03D
S3151FFF1830002000211EE0022A08BFDDE900011CD09F
S3151FFF1840022D08BFDDE9020117D0954207BF002011
S3151FFF18500B4900200021019B002B4CBF08240024AD
S3151FFF1860039B002B48BF84F00604012A02D184F094
S3151FFF18700204A4B2224600F047F905B030BD00BFEF
S3151FFF18800000F03F70B44FF0004591EA030C44BFD0
S3151FFF18906B40FFF74EBE841A71EB030603D2001B84
S3151FFF18A0B141121973414FF4001C1CEB410F34BF9A
S3151FFF18B07CEB430443E00C0DA4EB1356352E50DC93
S3151FFF18C045EAC323DB0A45EAC121C912B6F1200542
S3151FFF18D00DDD63FA05F6EB4086EA0305124218BFD4
S3151FFF18E045F00105C01851F100010CD213E062FA51
S3151FFF18F006F5F2405540F3415A40B340F3405A4074
S3151FFF19008018594107D349085FEA30005FEA35055A
S3151FFF191028BF45F0010501F58011420875F1004208
S3151FFF192050F1000041EB045170BC4FF4001C1CEB3F
S3151FFF1930410F38BF70470020090D090570471CEB83
S3151FFF1940410F10D252EA43060BD0BCEB410F05D80D
S3151FFF19500C0DAB43661E342EB5DD02E0AB4380187C
S3151FFF1960594170BC704770BC704700002DE9F041AC
S3151FFF197007000C0090461D003800C0B200F065F846
S3151FFF198006003800C0B200F04AF8002801D1012036
S3151FFF199023E0E4B24FF4807140F824105FFA88F811
S3151FFF19A0B8F1010F13D170690121A140084370617E
S3151FFF19B0EDB2012D05D130680121A14008433060EA
S3151FFF19C00AE030680121A1408843306004E0706956
S3151FFF19D00121A140884370610020BDE8F08138B521
S3151FFF19E00C001500C0B200F030F8EDB2002D05D186
S3151FFF19F001680122A2409143016004E001680122B0
S3151FFF1A00A2401143016031BD10B50C00C0B200F0FA
S3151FFF1A101CF8C1680122A2401143C16010BDC0B2AC
S3151FFF1A20002806D0022808D005D3042809D006D3DC
S3151FFF1A3009E0114870471148FCE71148FAE71148BA
S3151FFF1A40F8E71148F6E70020F4E7C0B2002806D0F2
S3151FFF1A50022808D005D3042809D006D309E00B486E
S3151FFF1A6070470B48FCE70B48FAE70B48F8E70B48AC
S3151FFF1A70F6E70020F4E700000090044000A00440B2
S3151FFF1A8000B0044000C0044000D0044000F00F40E7
S3151FFF1A9040F00F4080F00F40C0F00F4000F10F40A5
S3151FFF1AA0C1F30A5240F2FF739A420DD0002A02D0A9
S3151FFF1AB04FF0FF307047090350EA113002D06FF025
S3151FFF1AC00100704700207047090350EA113001D00B
S3151FFF1AD002207047012070474FF4001C1CEB410F7B
S3151FFF1AE094BF1CEB430F09E041EA030C50EA4C0C71
S3151FFF1AF052EA0C0C03D2994208BF9042704714BF9B
S3151FFF1B008B428242704700002DE9FC4D04460D466D
S3151FFF1B101646554A554B00F0F3F81CD8544FDFF8BD
S3151FFF1B2054813A464346FFF787FA0022524BFFF787
S3151FFF1B30A9FE82468B4622462B4638464146FFF76D
S3151FFF1B40A1FE02460B4650465946FFF747FB044682
S3151FFF1B500D4646F00106204629460022474BFFF752
S3151FFF1B60BBFF05D301224FF0795300F0C9F85DD8AB
S3151FFF1B7022462B46FFF760FA82468B4652465B4646
S3151FFF1B8020462946FFF758FA074688463C483D49EF
S3151FFF1B9052465B46FFF750FA3B4A3C4BFFF772FE36
S3151FFF1BA052465B46FFF748FA394A3A4BFFF76AFE3A
S3151FFF1BB03A464346FFF740FA02460B46204629465A
S3151FFF1BC0FFF760FE04460D463348344952465B46CF
S3151FFF1BD0FFF732FA02460B4631483249FFF752FEEC
S3151FFF1BE052465B46FFF728FA02460B462E482F49F9
S3151FFF1BF0FFF748FE52465B46FFF71EFA02460B46A5
S3151FFF1C002B482C49FFF73EFE02460B4650465946C8
S3151FFF1C10FFF712FA0022284BFFF734FE02460B4648
S3151FFF1C2020462946FFF7DAFA04460D46B00748BF96
S3151FFF1C3085F0004516F007020BD0204629460FF206
S3151FFF1C40800303EBC204D4E90023FFF71BFE044600
S3151FFF1C500D46300748BF85F00045CDE90045DDE954
S3151FFF1C600001BDE8FC8D000057CD9E5E1426D13FB7
S3151FFF1C70AA4C58E87AB6FB3F0000F0BF000040BEF3
S3151FFF1C80845D57134B57B03FB2934C19ED5EE43F3C
S3151FFF1C90BEDE02B90240F83FDE39028FC7C0743F6E
S3151FFF1CA08AAB1283000CC83F24D7E508B6D8F03F8E
S3151FFF1CB00F34580E5895FD3F0000F03F00000000FF
S3151FFF1CC0000000000000000066732D3852C1E03F80
S3151FFF1CD0182D4454FB21F93F66732D3852C1F03F2F
S3151FFF1CE0182D4454FB21F93F66732D3852C100400E
S3151FFF1CF0182D4454FB2109403FD038C6A6F1044096
S3151FFF1D004FF4001C1CEB410F94BF1CEB430F09E064
S3151FFF1D1041EA030C50EA4C0C52EA0C0C03D28B42DD
S3151FFF1D2008BF8242704714BF994290427047000016
S3151FFF1D3030B504000D002800DFF844140968FEF7CC
S3151FFF1D4003FFDFF840140968FEF792FEDFF8381429
S3151FFF1D500968FFF7EDFCDFF830140860DFF82C0485
S3151FFF1D600068DFF82C144968FEF7EEFEDFF8201433
S3151FFF1D708968FEF7E9FEDFF81C140860DFF8140414
S3151FFF1D80DFF80C14C96891F000414160DFF80404C5
S3151FFF1D90DFF8FC13C96891F000418160DFF8F40397
S3151FFF1DA0DFF8F4130968C160DFF8E8030168DFF89D
S3151FFF1DB0D4030068FEF75CFEDFF8D4130968FFF74C
S3151FFF1DC0B7FCDFF8CC130860DFF8C8034168DFF8FC
S3151FFF1DD0B4030068FEF74CFEDFF8B4134968FFF73C
S3151FFF1DE0A7FCDFF8AC134860DFF8A8038168DFF8AC
S3151FFF1DF094030068FEF73CFEDFF894138968FFF72C
S3151FFF1E0097FCDFF88C138860DFF88803C168DFF85B
S3151FFF1E1074030068FEF72CFEDFF87413C968FFF71B
S3151FFF1E2087FCDFF86C13C8602000DFF85C130968B6
S3151FFF1E30FEF78AFEDFF8641308600FF2CC300078D6
S3151FFF1E40FEF70EFFDFF848130968FEF711FEDFF8EE
S3151FFF1E50501308600FF2B0300078FEF701FFDFF86E
S3151FFF1E6030138968FEF704FEDFF8381308600FF298
S3151FFF1E7098300078FEF7F4FEDFF824130968FEF7A3
S3151FFF1E80F7FDDFF824130968FFF752FCDFF81C1371
S3151FFF1E900860DFF80C030068DFF810130968FFF707
S3151FFF1EA0C1FADFF80C130860BE480068BF4909680E
S3151FFF1EB0FFF7B8FABF490860BF48B949096801600B
S3151FFF1EC00FF244300078FEF7CBFEB1494968FEF7A3
S3151FFF1ED0CFFDBA490860B6480168B7480068FEF7E4
S3151FFF1EE0C7FD0100AA480068FEF72EFEA849086035
S3151FFF1EF0AF480168B1480068FEF7BAFD0100A44864
S3151FFF1F004068FEF721FEA2494860AA480168AA4811
S3151FFF1F100068FEF7ADFD01009D488068FEF714FEC1
S3151FFF1F209B498860A3480168A4480068FEF7A0FD87
S3151FFF1F3001009748C068FEF707FE9549C8609C4891
S3151FFF1F40016896480068FEF793FD8F490968FFF7FA
S3151FFF1F50EFFB8D4908609748016890480068FEF7B8
S3151FFF1F6087FD87490968FFF7E3FB85490860280056
S3151FFF1F7083490968FEF7E8FD9149086082480068B2
S3151FFF1F8030BD30B504000D0028008E490968FEF7E5
S3151FFF1F90DBFD8D490968FEF76BFD8C490968FFF765
S3151FFF1FA0C7FB8A4908608A4800688A494968FEF75D
S3151FFF1FB0CBFD88498968FEF7C7FD874908608648B4
S3151FFF1FC08449C96891F00041416083488149C968C6
S3151FFF1FD091F000418160804880490968C1607E4851
S3151FFF1FE0016879480068FEF743FD7A490968FFF7DC
S3151FFF1FF09FFB784908607848416873480068FEF779
S3151FFF200037FD74494968FFF793FB72494860724869
S3151FFF201081686D480068FEF72BFD6E498968FFF7DB
S3151FFF202087FB6C4988606C48C16867480068FEF784
S3151FFF20301FFD6849C968FFF77BFB6649C86020001B
S3151FFF204062490968FEF780FD654908600FF2BC10FB
S3151FFF20500078FEF705FE5F490968FEF709FD61492E
S3151FFF206008600FF2A8100078FEF7FAFD5949896834
S3151FFF2070FEF7FEFC5C4908600FF290100078FEF732
S3151FFF2080EFFD58490968FEF7F3FC58490968FFF742
S3151FFF20904FFB574908605348006855490968FFF7C2
S3151FFF20A0C1F9544908605048006851490968FFF74C
S3151FFF20B0B9F95149086051484A49096801600FF249
S3151FFF20C04C100078FEF7CCFD42494968FEF7D0FC5D
S3151FFF20D04B4908604748016848480068FEF7C8FC37
S3151FFF20E001003C480068FEF72FFD3A49086041484A
S3151FFF20F0016843480068FEF7BBFC0100354840688E
S3151FFF2100FEF722FD334948603B4801683B4800689C
S3151FFF2110FEF7AEFC01002F488068FEF715FD2D491F
S3151FFF212088603548016836480068FEF7A1FC010044
S3151FFF21302848C068FEF708FD2649C8602D48016874
S3151FFF214027480068FEF794FC20490968FFF7F0FA55
S3151FFF21501E4908602848016821480068FEF788FC69
S3151FFF216018490968FFF7E4FA164908602800154958
S3151FFF21700968FEF7E9FC234908601448006830BD6B
S3151FFF2180782FFF1F282FFF1F602FFF1F1C2FFF1FDB
S3151FFF21902C2FFF1F682FFF1F202FFF1F7C2FFF1FB7
S3151FFF21A0802FFF1F842FFF1F242FFF1F882FFF1F27
S3151FFF21B08C2FFF1F902FFF1F942FFF1F982FFF1F7F
S3151FFF21C0642FFF1FB42FFF1F482FFF1F9C2FFF1FBB
S3151FFF21D03C2FFF1F4C2FFF1FA42FFF1F402FFF1F3B
S3151FFF21E0B82FFF1FBC2FFF1FC02FFF1F442FFF1F1F
S3151FFF21F0C42FFF1FC82FFF1FCC2FFF1FD02FFF1F5F
S3151FFF2200D42FFF1FA02FFF1F01000000010000009A
S3151FFF22108B484FF4407101608A484FF4407101604B
S3151FFF222089484FF44071016088484FF4407101603F
S3151FFF2230874800684FF40071084385490860854841
S3151FFF2240006850F00070834908608348006850F0AB
S3151FFF22508070814908608148006850F008007F49F7
S3151FFF226008607E48006830F004007C4908607B48A0
S3151FFF2270006850F02000794908607948006850F0DF
S3151FFF22800800774908607648006830F004007449F3
S3151FFF229008607348006850F0200071490860714854
S3151FFF22A02D2101607048006850F008006E490860D4
S3151FFF22B06D48006830F004006B4908606A48006883
S3151FFF22C050F02000684908606848006850F0080011
S3151FFF22D0664908606548006830F004006349086076
S3151FFF22E06248006850F020006049086060482D2151
S3151FFF22F001606048006850F004005E4908605D4851
S3151FFF23000068400840005B4908605B48006850F062
S3151FFF2310040059490860584800684008400056495C
S3151FFF23200860564800210160554800210160554845
S3151FFF233000210160544800210160544800210160BB
S3151FFF23405348002101605348002101605248002174
S3151FFF235001605248006840084000504908605048D5
S3151FFF2360002101604F48002101604F480021016095
S3151FFF23704E480068400840004C4908604C48002101
S3151FFF238001604C48002101604B48002101604B480A
S3151FFF2390002101604A4843F6982101604948002100
S3151FFF23A00160494843F698210160484840F2EE21F3
S3151FFF23B00160474840F2EE21016046480021016057
S3151FFF23C0454840F2EE210160444840F2EE2101608C
S3151FFF23D0434800210160704770B50C0016001D00B1
S3151FFF23E080B200F083F83F4A3F4BFEF7F7FE00F03F
S3151FFF23F08BF836490860A4B2200000F077F8394AF7
S3151FFF2400394BFEF7EBFE00F07FF831490860B6B295
S3151FFF2410300000F06BF8334A334BFEF7DFFE00F058
S3151FFF242073F82D490860ADB2280000F05FF82D4AFA
S3151FFF24302D4BFEF7D3FE00F067F82849086070BDE5
S3151FFF2440309004403490044048A004404CA0044000
S3151FFF2450388004403C800440308004400C90034089
S3151FFF246014900340009003400C800B4014800B40D8
S3151FFF247000800B405490034054800B4064900340F0
S3151FFF24805C9003406C9003407090034064800B4048
S3151FFF24905C800B406C800B4070800B40809003402C
S3151FFF24A090900340949003409890034080800B4088
S3151FFF24B090800B4094800B4098800B404C900340BC
S3151FFF24C0089003404C800B4008800B401090034040
S3151FFF24D0189003400490034010800B4018800B4058
S3151FFF24E004800B40DA1B7C613255F53F010009D092
S3151FFF24F0B0FA80F18840C91CC1F58461090501EB5B
S3151FFF2500D021400570470000F446400D40EAC12028
S3151FFF2510490006D200F013F8004248BF6FF0004093
S3151FFF2520604700F00CF84FF0004188428CBF084609
S3151FFF253040426047400D40EAC12049000CD240F09F
S3151FFF25400040490DA1F58061491C05D4D1F11F013A
S3151FFF255054BFC840C01770474FF0000070470000B8
S3151FFF256030B4DFF8103298420AD1DFF80C324FF43D
S3151FFF257040741C60DFF804324FF440741C603DE06A
S3151FFF2580DFF8FC3198420AD1DFF8F8314FF4407477
S3151FFF25901C60DFF8F4314FF440741C602EE07B4B58
S3151FFF25A0984208D17A4B4FF440741C60794B4FF415
S3151FFF25B040741C6022E0784B984208D1774B4FF44A
S3151FFF25C040741C60764B4FF440741C6016E0754BCD
S3151FFF25D0984208D1744B4FF440741C60734B4FF4F1
S3151FFF25E040741C600AE0724B984207D1714B4FF43F
S3151FFF25F040741C60704B4FF440741C605D4B9842D7
S3151FFF260006D16E4B1B6853F480636C4C23602DE021
S3151FFF26105B4B984206D1694B1B6853F40063674CAB
S3151FFF2620236023E0594B984206D1644B1B6853F432
S3151FFF26308053624C236019E0574B984206D15F4B7C
S3151FFF26401B6853F400535D4C23600FE0554B9842B4
S3151FFF265006D15B4B1B6853F48063594C236005E01F
S3151FFF2660574B1B6853F40063554C2360C37813F015
S3151FFF2670F303C370002383703E4B984208D0002399
S3151FFF26803F4CA04204D053F00003DBB2002B00D017
S3151FFF269049184FF47A7303FB01F31401B3FBF4F3E9
S3151FFF26A0047814F0E0049BB21D0A15F01F052C4396
S3151FFF26B0047043704FF4FA4461431201B1FBF2F108
S3151FFF26C09BB2B1EB4311827A12F0E00411F01F01A6
S3151FFF26D021438172C17851F00C01C17030BC704724
S3151FFF26E0002200E0521C4FF6BB339A4206D20379F3
S3151FFF26F09B06F7D5C0790870012006E04FF6BB3061
S3151FFF2700824201D3002000E00020704702791206A3
S3151FFF2710FCD5C1717047F8B504000D0016000027E0
S3151FFF272000E07F1CBFB2B6B2B74208D2BFB279195B
S3151FFF27302000FFF7D5FF0028F3D1002000E001207E
S3151FFF2740F2BDF8B504000D001600002704E0795D01
S3151FFF27502000FFF7DBFF7F1CB6B2B742F7DBF1BDE9
S3151FFF276080B5C27852F02002C270C9B2080000F0CD
S3151FFF27702CF801BD00A0064018C004401CC0044031
S3151FFF278000B0064010B004400CB0044000C0064025
S3151FFF27900CC0044008C0044000D0064044B00440AB
S3151FFF27A040B0044000A00E4060D0044064D00440F7
S3151FFF27B000B00E4020D0044024D004403480044093
S3151FFF27C0288004402549086070475C2800DB5B2092
S3151FFF27D0202190FBF1F1002903D0022929D014D320
S3151FFF27E03AE00121202290FBF2F303FB12039940EB
S3151FFF27F01B4A11600121202290FBF2F303FB1203F8
S3151FFF280011FA03F01749086026E00121202290FBE9
S3151FFF2810F2F303FB12039940134A11600121202291
S3151FFF282090FBF2F303FB120311FA03F00F49086043
S3151FFF283012E00121202290FBF2F303FB12039940C2
S3151FFF28400B4A11600121202290FBF2F303FB1203B7
S3151FFF285011FA03F0074908607047000008ED00E012
S3151FFF286080E200E000E100E084E200E004E100E036
S3151FFF287088E200E008E100E080B55A48006850F49E
S3151FFF28807850584908600321022000F02FF8564957
S3151FFF28900860554800684FF47A71484353490860EA
S3151FFF28A05248006852490968C1F30361491CB0FBCE
S3151FFF28B0F1F05049086000F003F800F00CF801BD75
S3151FFF28C04D48006850F480504B4908604B484FF401
S3151FFF28D0E061016070474A48006850F001004849AF
S3151FFF28E0086048484FF4A0610160704780B50A0031
S3151FFF28F0C0B2042801D3002072E0D2B2102A01D33E
S3151FFF290001206DE0404A00231370404A126852F0BF
S3151FFF291080523E4B1A603E4A127852F080023C4B61
S3151FFF29201A703C4A982313703B4A1278D206FBD47F
S3151FFF2930394A1278C2F38102D2B2022AF8D1374A34
S3151FFF294018231370364A00231370C0B2002805D010
S3151FFF2950022819D00DD3032821D02AE001230022F4
S3151FFF29600021002000F0B4FA2D48412101703221C9
S3151FFF29701FE0032301220121002000F0A9FA2848A6
S3151FFF29805A210170642114E0032301220121002033
S3151FFF299000F09EFA224858210170602109E00123A9
S3151FFF29A000220021002000F093FA1D4840210170EC
S3151FFF29B03021194800788006FBD517480078400656
S3151FFF29C0FBD51448007810F03F00124A10701248CA
S3151FFF29D00078C0F38100C0B20328F8D10800C0B247
S3151FFF29E002BD0000388004403430FF1F3030FF1F08
S3151FFF29F0448004403830FF1F048004401890044071
S3151FFF2A00408004400CB0044001400640348004401F
S3151FFF2A1008C00740004006400640064004400640E7
S3151FFF2A200540064010B5002472B604224B494C4898
S3151FFF2A30FFF771FE494800784849497851FA80F0F7
S3151FFF2A404649897850FA81F00400E4B24348C078BA
S3151FFF2A5000B224B2A0420BD14048407841490880BA
S3151FFF2A60404800883D49897851EA00203D49088042
S3151FFF2A7062B610BD80B572B600A93B48FFF730FEA0
S3151FFF2A809DF80000052811D14FF47A734FF47A721F
S3151FFF2A904FF47A714FF47A70FFF79EFC0F210020D7
S3151FFF2AA0FEF7B2FF3148FDF703FDF7E762B601BD3B
S3151FFF2AB080B572B600A92E48FFF712FE002804D074
S3151FFF2AC09DF800102A48FFF721FE62B601BD0000E0
S3151FFF2AD080B572B627480068401C264908602648FD
S3151FFF2AE00068C00734D5FDF767FEFDF71BFD0422FF
S3151FFF2AF022491B48FFF725FE1E4800684FF47A71CF
S3151FFF2B0088421FD31E48016891F000411D48006887
S3151FFF2B10FFF70EF91C4908601C4801681C4800682E
S3151FFF2B20FFF72FFA1B4908601B481C4909680160FC
S3151FFF2B3040F24C4340F24C4240F24C4140F24C4073
S3151FFF2B40FFF74AFC0C48006850F001000A4908606D
S3151FFF2B50002000F054F862B601BD00002C30FF1FA5
S3151FFF2B6000A006404830FF1F00B006400000484245
S3151FFF2B7000D006401C30FF1F0C7103405C2FFF1F48
S3151FFF2B80F02FFF1FE02FFF1F2030FF1FEC2FFF1F10
S3151FFF2B90E42FFF1F2430FF1F2830FF1F0030FF1FAA
S3151FFF2BA02A4A126852F40002284B1A60284A1268F2
S3151FFF2BB032F00202264B1A60254A126852F00102B2
S3151FFF2BC0234B1A60C0B20201224BD150C0B221491A
S3151FFF2BD011EB0011896851F00101C0B21D4A12EBBA
S3151FFF2BE000129160C0B21B4911EB0011896831F0C9
S3151FFF2BF00201C0B2174A12EB00108160704780B501
S3151FFF2C00C0B2144911EB0011896851F00201C0B21D
S3151FFF2C10104A12EB00129160C0B2002805D002289D
S3151FFF2C200BD006D303280CD00EE04420FFF7CDFDB3
S3151FFF2C300AE04520FFF7C9FD06E04620FFF7C5FD61
S3151FFF2C4002E04720FFF7C1FD01BD00003C800440A5
S3151FFF2C50007003400071034080B500F055F800F087
S3151FFF2C6005F8FFF709FE00F06BF801BD80B51C489C
S3151FFF2C701C4988420BD0002006E01949194A52F811
S3151FFF2C80202041F82020401CB0F5826FF5D3144851
S3151FFF2C90FFF798FD1449154A1548801A03E0137864
S3151FFF2CA00B70521C491C0300581E002BF7D11149EC
S3151FFF2CB01148401A02E000220A70491C0200501EEA
S3151FFF2CC0002AF8D10D490E4A0E48801A03E01378E1
S3151FFF2CD00B70521C491C0300581E002BF7D101BD58
S3151FFF2CE00000FF1F0000FF1F1C2FFF1F002EFF1FCF
S3151FFF2CF0442EFF1F602FFF1F4A30FF1FD02EFF1FBF
S3151FFF2D00B42DFF1F002EFF1F80B500F009F80A48DC
S3151FFF2D1000884FF6FE7108400749088001BD000075
S3151FFF2D2072B606484CF22051018004484DF6281111
S3151FFF2D30018062B670470000002005400E20054047
S3151FFF2D4080B572B60020FDF7ABFF012301220F21CD
S3151FFF2D500020FEF70BFE4FF4165213480168134867
S3151FFF2D60FFF7FEFB4FF461420F4801681048FFF75C
S3151FFF2D70F7FB2D210D48FFF7F3FC2F210C48FFF71B
S3151FFF2D80EFFC09480068142101FB00F10020FFF743
S3151FFF2D9007FF0020FFF733FFFFF73AFAFDF798FB10
S3151FFF2DA0FDF7D0FC62B6FEE73830FF1F00A00640D6
S3151FFF2DB000B0064070B4104C24680F4D2D6855F4B3
S3151FFF2DC07F050D4E3560090611F0706151EA0070DF
S3151FFF2DD0110511F470010843190411F470210843FA
S3151FFF2DE006490860002000E0401CC0B29842FBD392
S3151FFF2DF00148046070BC704700F0014044800440E6
S3151FFF2E006F12833AA69B443B0000003F0AD7A33CA1
S3151FFF2E100000803F00000000000000000000803F10
S3151FFF2E206F12833AA69B443B0000003F0AD7A33C81
S3151FFF2E300000803F00000000000000000000803FF0
S3151FFF2E402200002210B5084979441C31074C7C44E7
S3151FFF2E501A34A14206D0081D0A6851188847014631
S3151FFF2E60A142F8D110BD00BF0800000014000000EA
S3151FFF2E70BBDDFFFFEC000000602FFF1F00000000FF
S3151FFF2E8000F009F8002801D0FFF7DCFF0020FFF74D
S3151FFF2E9057FF00F002F80120704780B500F002B817
S3151FFF2EA000BF00000746384600F002F8FBE70000A8
S3151FFF2EB080B5C046C046024A11001820ABBEFBE7CD
S3151FFF2EC026000200C046C046C046C046FFF7D8FFD1
S7051FFF2EC5E9
